{
  "_format": "hh-sol-artifact-1",
  "contractName": "Arena",
  "sourceName": "contracts/Arena/Arena.sol",
  "abi": [
    {
      "inputs": [
        {
          "internalType": "contract ExperiencePoints",
          "name": "_experiencePoints",
          "type": "address"
        }
      ],
      "stateMutability": "nonpayable",
      "type": "constructor"
    },
    {
      "anonymous": false,
      "inputs": [
        {
          "indexed": true,
          "internalType": "address",
          "name": "previousOwner",
          "type": "address"
        },
        {
          "indexed": true,
          "internalType": "address",
          "name": "newOwner",
          "type": "address"
        }
      ],
      "name": "OwnershipTransferred",
      "type": "event"
    },
    {
      "inputs": [
        {
          "internalType": "address",
          "name": "_to",
          "type": "address"
        },
        {
          "internalType": "uint256",
          "name": "_amount",
          "type": "uint256"
        },
        {
          "internalType": "bytes",
          "name": "signature",
          "type": "bytes"
        }
      ],
      "name": "claimPrize",
      "outputs": [],
      "stateMutability": "nonpayable",
      "type": "function"
    },
    {
      "inputs": [],
      "name": "experiencePoints",
      "outputs": [
        {
          "internalType": "contract ExperiencePoints",
          "name": "",
          "type": "address"
        }
      ],
      "stateMutability": "view",
      "type": "function"
    },
    {
      "inputs": [
        {
          "internalType": "address",
          "name": "",
          "type": "address"
        }
      ],
      "name": "gameScores",
      "outputs": [
        {
          "internalType": "uint256",
          "name": "",
          "type": "uint256"
        }
      ],
      "stateMutability": "view",
      "type": "function"
    },
    {
      "inputs": [
        {
          "internalType": "bytes32",
          "name": "_messageHash",
          "type": "bytes32"
        }
      ],
      "name": "getEthSignedMessageHash",
      "outputs": [
        {
          "internalType": "bytes32",
          "name": "",
          "type": "bytes32"
        }
      ],
      "stateMutability": "pure",
      "type": "function"
    },
    {
      "inputs": [
        {
          "internalType": "address",
          "name": "_to",
          "type": "address"
        },
        {
          "internalType": "uint256",
          "name": "_amount",
          "type": "uint256"
        }
      ],
      "name": "getMessageHash",
      "outputs": [
        {
          "internalType": "bytes32",
          "name": "",
          "type": "bytes32"
        }
      ],
      "stateMutability": "pure",
      "type": "function"
    },
    {
      "inputs": [
        {
          "internalType": "address",
          "name": "_gamer",
          "type": "address"
        },
        {
          "internalType": "uint256",
          "name": "_score",
          "type": "uint256"
        }
      ],
      "name": "logGameScore",
      "outputs": [],
      "stateMutability": "nonpayable",
      "type": "function"
    },
    {
      "inputs": [],
      "name": "owner",
      "outputs": [
        {
          "internalType": "address",
          "name": "",
          "type": "address"
        }
      ],
      "stateMutability": "view",
      "type": "function"
    },
    {
      "inputs": [
        {
          "internalType": "bytes32",
          "name": "_ethSignedMessageHash",
          "type": "bytes32"
        },
        {
          "internalType": "bytes",
          "name": "_signature",
          "type": "bytes"
        }
      ],
      "name": "recoverSigner",
      "outputs": [
        {
          "internalType": "address",
          "name": "",
          "type": "address"
        }
      ],
      "stateMutability": "pure",
      "type": "function"
    },
    {
      "inputs": [],
      "name": "renounceOwnership",
      "outputs": [],
      "stateMutability": "nonpayable",
      "type": "function"
    },
    {
      "inputs": [
        {
          "internalType": "bytes",
          "name": "sig",
          "type": "bytes"
        }
      ],
      "name": "splitSignature",
      "outputs": [
        {
          "internalType": "bytes32",
          "name": "r",
          "type": "bytes32"
        },
        {
          "internalType": "bytes32",
          "name": "s",
          "type": "bytes32"
        },
        {
          "internalType": "uint8",
          "name": "v",
          "type": "uint8"
        }
      ],
      "stateMutability": "pure",
      "type": "function"
    },
    {
      "inputs": [
        {
          "internalType": "address",
          "name": "newOwner",
          "type": "address"
        }
      ],
      "name": "transferOwnership",
      "outputs": [],
      "stateMutability": "nonpayable",
      "type": "function"
    },
    {
      "inputs": [
        {
          "internalType": "address",
          "name": "",
          "type": "address"
        }
      ],
      "name": "userClaimed",
      "outputs": [
        {
          "internalType": "uint256",
          "name": "",
          "type": "uint256"
        }
      ],
      "stateMutability": "view",
      "type": "function"
    },
    {
      "inputs": [
        {
          "internalType": "address",
          "name": "_to",
          "type": "address"
        },
        {
          "internalType": "uint256",
          "name": "_amount",
          "type": "uint256"
        },
        {
          "internalType": "bytes",
          "name": "signature",
          "type": "bytes"
        }
      ],
      "name": "verify",
      "outputs": [
        {
          "internalType": "bool",
          "name": "",
          "type": "bool"
        }
      ],
      "stateMutability": "view",
      "type": "function"
    }
  ],
  "bytecode": "0x60806040523480156200001157600080fd5b5060405162001568380380620015688339818101604052810190620000379190620001e9565b620000576200004b6200009f60201b60201c565b620000a760201b60201c565b80600160006101000a81548173ffffffffffffffffffffffffffffffffffffffff021916908373ffffffffffffffffffffffffffffffffffffffff160217905550506200021b565b600033905090565b60008060009054906101000a900473ffffffffffffffffffffffffffffffffffffffff169050816000806101000a81548173ffffffffffffffffffffffffffffffffffffffff021916908373ffffffffffffffffffffffffffffffffffffffff1602179055508173ffffffffffffffffffffffffffffffffffffffff168173ffffffffffffffffffffffffffffffffffffffff167f8be0079c531659141344cd1fd0a4f28419497f9722a3daafe3b4186f6b6457e060405160405180910390a35050565b600080fd5b600073ffffffffffffffffffffffffffffffffffffffff82169050919050565b60006200019d8262000170565b9050919050565b6000620001b18262000190565b9050919050565b620001c381620001a4565b8114620001cf57600080fd5b50565b600081519050620001e381620001b8565b92915050565b6000602082840312156200020257620002016200016b565b5b60006200021284828501620001d2565b91505092915050565b61133d806200022b6000396000f3fe608060405234801561001057600080fd5b50600436106100cf5760003560e01c80638cb8b2e01161008c57806397aba7f91161006657806397aba7f914610212578063a7bb580314610242578063f2fde38b14610274578063fa54080114610290576100cf565b80638cb8b2e0146101ba5780638da5cb5b146101d857806391b52d3e146101f6576100cf565b80630854db62146100d457806327af779c146100f05780633b7fcdca14610120578063512c91df146101505780636f576e0614610180578063715018a6146101b0575b600080fd5b6100ee60048036038101906100e99190610b17565b6102c0565b005b61010a60048036038101906101059190610b86565b6104c7565b6040516101179190610bc2565b60405180910390f35b61013a60048036038101906101359190610b86565b6104df565b6040516101479190610bc2565b60405180910390f35b61016a60048036038101906101659190610bdd565b6104f7565b6040516101779190610c36565b60405180910390f35b61019a60048036038101906101959190610b17565b61052a565b6040516101a79190610c6c565b60405180910390f35b6101b8610590565b005b6101c26105a4565b6040516101cf9190610ce6565b60405180910390f35b6101e06105ca565b6040516101ed9190610d10565b60405180910390f35b610210600480360381019061020b9190610bdd565b6105f3565b005b61022c60048036038101906102279190610d57565b610655565b6040516102399190610d10565b60405180910390f35b61025c60048036038101906102579190610db3565b6106c4565b60405161026b93929190610e18565b60405180910390f35b61028e60048036038101906102899190610b86565b61072c565b005b6102aa60048036038101906102a59190610e4f565b6107af565b6040516102b79190610c36565b60405180910390f35b600115156102cf84848461052a565b151514610311576040517f08c379a000000000000000000000000000000000000000000000000000000000815260040161030890610ed9565b60405180910390fd5b81600360008573ffffffffffffffffffffffffffffffffffffffff1673ffffffffffffffffffffffffffffffffffffffff16815260200190815260200160002054600260008673ffffffffffffffffffffffffffffffffffffffff1673ffffffffffffffffffffffffffffffffffffffff1681526020019081526020016000205461039c9190610f28565b10156103dd576040517f08c379a00000000000000000000000000000000000000000000000000000000081526004016103d490610fa8565b60405180910390fd5b81600360008573ffffffffffffffffffffffffffffffffffffffff1673ffffffffffffffffffffffffffffffffffffffff168152602001908152602001600020600082825461042c9190610fc8565b92505081905550600160009054906101000a900473ffffffffffffffffffffffffffffffffffffffff1673ffffffffffffffffffffffffffffffffffffffff166340c10f1984846040518363ffffffff1660e01b8152600401610490929190610ffc565b600060405180830381600087803b1580156104aa57600080fd5b505af11580156104be573d6000803e3d6000fd5b50505050505050565b60026020528060005260406000206000915090505481565b60036020528060005260406000206000915090505481565b6000828260405160200161050c92919061108e565b60405160208183030381529060405280519060200120905092915050565b60008061053785856104f7565b90506000610544826107af565b905061054e6105ca565b73ffffffffffffffffffffffffffffffffffffffff1661056e8286610655565b73ffffffffffffffffffffffffffffffffffffffff1614925050509392505050565b6105986107df565b6105a2600061085d565b565b600160009054906101000a900473ffffffffffffffffffffffffffffffffffffffff1681565b60008060009054906101000a900473ffffffffffffffffffffffffffffffffffffffff16905090565b6105fb6107df565b80600260008473ffffffffffffffffffffffffffffffffffffffff1673ffffffffffffffffffffffffffffffffffffffff168152602001908152602001600020600082825461064a9190610fc8565b925050819055505050565b600080600080610664856106c4565b9250925092506001868285856040516000815260200160405260405161068d94939291906110ba565b6020604051602081039080840390855afa1580156106af573d6000803e3d6000fd5b50505060206040510351935050505092915050565b6000806000604184511461070d576040517f08c379a00000000000000000000000000000000000000000000000000000000081526004016107049061114b565b60405180910390fd5b6020840151925060408401519150606084015160001a90509193909250565b6107346107df565b600073ffffffffffffffffffffffffffffffffffffffff168173ffffffffffffffffffffffffffffffffffffffff16036107a3576040517f08c379a000000000000000000000000000000000000000000000000000000000815260040161079a906111dd565b60405180910390fd5b6107ac8161085d565b50565b6000816040516020016107c29190611275565b604051602081830303815290604052805190602001209050919050565b6107e7610921565b73ffffffffffffffffffffffffffffffffffffffff166108056105ca565b73ffffffffffffffffffffffffffffffffffffffff161461085b576040517f08c379a0000000000000000000000000000000000000000000000000000000008152600401610852906112e7565b60405180910390fd5b565b60008060009054906101000a900473ffffffffffffffffffffffffffffffffffffffff169050816000806101000a81548173ffffffffffffffffffffffffffffffffffffffff021916908373ffffffffffffffffffffffffffffffffffffffff1602179055508173ffffffffffffffffffffffffffffffffffffffff168173ffffffffffffffffffffffffffffffffffffffff167f8be0079c531659141344cd1fd0a4f28419497f9722a3daafe3b4186f6b6457e060405160405180910390a35050565b600033905090565b6000604051905090565b600080fd5b600080fd5b600073ffffffffffffffffffffffffffffffffffffffff82169050919050565b60006109688261093d565b9050919050565b6109788161095d565b811461098357600080fd5b50565b6000813590506109958161096f565b92915050565b6000819050919050565b6109ae8161099b565b81146109b957600080fd5b50565b6000813590506109cb816109a5565b92915050565b600080fd5b600080fd5b6000601f19601f8301169050919050565b7f4e487b7100000000000000000000000000000000000000000000000000000000600052604160045260246000fd5b610a24826109db565b810181811067ffffffffffffffff82111715610a4357610a426109ec565b5b80604052505050565b6000610a56610929565b9050610a628282610a1b565b919050565b600067ffffffffffffffff821115610a8257610a816109ec565b5b610a8b826109db565b9050602081019050919050565b82818337600083830152505050565b6000610aba610ab584610a67565b610a4c565b905082815260208101848484011115610ad657610ad56109d6565b5b610ae1848285610a98565b509392505050565b600082601f830112610afe57610afd6109d1565b5b8135610b0e848260208601610aa7565b91505092915050565b600080600060608486031215610b3057610b2f610933565b5b6000610b3e86828701610986565b9350506020610b4f868287016109bc565b925050604084013567ffffffffffffffff811115610b7057610b6f610938565b5b610b7c86828701610ae9565b9150509250925092565b600060208284031215610b9c57610b9b610933565b5b6000610baa84828501610986565b91505092915050565b610bbc8161099b565b82525050565b6000602082019050610bd76000830184610bb3565b92915050565b60008060408385031215610bf457610bf3610933565b5b6000610c0285828601610986565b9250506020610c13858286016109bc565b9150509250929050565b6000819050919050565b610c3081610c1d565b82525050565b6000602082019050610c4b6000830184610c27565b92915050565b60008115159050919050565b610c6681610c51565b82525050565b6000602082019050610c816000830184610c5d565b92915050565b6000819050919050565b6000610cac610ca7610ca28461093d565b610c87565b61093d565b9050919050565b6000610cbe82610c91565b9050919050565b6000610cd082610cb3565b9050919050565b610ce081610cc5565b82525050565b6000602082019050610cfb6000830184610cd7565b92915050565b610d0a8161095d565b82525050565b6000602082019050610d256000830184610d01565b92915050565b610d3481610c1d565b8114610d3f57600080fd5b50565b600081359050610d5181610d2b565b92915050565b60008060408385031215610d6e57610d6d610933565b5b6000610d7c85828601610d42565b925050602083013567ffffffffffffffff811115610d9d57610d9c610938565b5b610da985828601610ae9565b9150509250929050565b600060208284031215610dc957610dc8610933565b5b600082013567ffffffffffffffff811115610de757610de6610938565b5b610df384828501610ae9565b91505092915050565b600060ff82169050919050565b610e1281610dfc565b82525050565b6000606082019050610e2d6000830186610c27565b610e3a6020830185610c27565b610e476040830184610e09565b949350505050565b600060208284031215610e6557610e64610933565b5b6000610e7384828501610d42565b91505092915050565b600082825260208201905092915050565b7f496e76616c6964205369676e6174757265000000000000000000000000000000600082015250565b6000610ec3601183610e7c565b9150610ece82610e8d565b602082019050919050565b60006020820190508181036000830152610ef281610eb6565b9050919050565b7f4e487b7100000000000000000000000000000000000000000000000000000000600052601160045260246000fd5b6000610f338261099b565b9150610f3e8361099b565b9250828203905081811115610f5657610f55610ef9565b5b92915050565b7f496e73756666696369656e7420436c61696d61626c6520506f696e7473000000600082015250565b6000610f92601d83610e7c565b9150610f9d82610f5c565b602082019050919050565b60006020820190508181036000830152610fc181610f85565b9050919050565b6000610fd38261099b565b9150610fde8361099b565b9250828201905080821115610ff657610ff5610ef9565b5b92915050565b60006040820190506110116000830185610d01565b61101e6020830184610bb3565b9392505050565b60008160601b9050919050565b600061103d82611025565b9050919050565b600061104f82611032565b9050919050565b6110676110628261095d565b611044565b82525050565b6000819050919050565b6110886110838261099b565b61106d565b82525050565b600061109a8285611056565b6014820191506110aa8284611077565b6020820191508190509392505050565b60006080820190506110cf6000830187610c27565b6110dc6020830186610e09565b6110e96040830185610c27565b6110f66060830184610c27565b95945050505050565b7f496e76616c6964207369676e6174757265206c656e6774680000000000000000600082015250565b6000611135601883610e7c565b9150611140826110ff565b602082019050919050565b6000602082019050818103600083015261116481611128565b9050919050565b7f4f776e61626c653a206e6577206f776e657220697320746865207a65726f206160008201527f6464726573730000000000000000000000000000000000000000000000000000602082015250565b60006111c7602683610e7c565b91506111d28261116b565b604082019050919050565b600060208201905081810360008301526111f6816111ba565b9050919050565b600081905092915050565b7f19457468657265756d205369676e6564204d6573736167653a0a333200000000600082015250565b600061123e601c836111fd565b915061124982611208565b601c82019050919050565b6000819050919050565b61126f61126a82610c1d565b611254565b82525050565b600061128082611231565b915061128c828461125e565b60208201915081905092915050565b7f4f776e61626c653a2063616c6c6572206973206e6f7420746865206f776e6572600082015250565b60006112d1602083610e7c565b91506112dc8261129b565b602082019050919050565b60006020820190508181036000830152611300816112c4565b905091905056fea2646970667358221220b841b5d8960495520b7bb9b9185982d6051ab6971fb2257b3a517042ac7fc37064736f6c63430008110033",
  "linkReferences": {},
  "deployedLinkReferences": {}
}