{
  "_format": "hh-sol-artifact-1",
  "contractName": "LuckyDraw",
  "sourceName": "contracts/LuckyDraw.sol",
  "abi": [
    {
      "inputs": [
        {
          "internalType": "address",
          "name": "_NFTContract",
          "type": "address"
        },
        {
          "internalType": "uint256",
          "name": "_prizeTokenId",
          "type": "uint256"
        }
      ],
      "stateMutability": "nonpayable",
      "type": "constructor"
    },
    {
      "anonymous": false,
      "inputs": [
        {
          "indexed": false,
          "internalType": "address",
          "name": "user",
          "type": "address"
        }
      ],
      "name": "NewChallenger",
      "type": "event"
    },
    {
      "anonymous": false,
      "inputs": [
        {
          "indexed": false,
          "internalType": "address",
          "name": "user",
          "type": "address"
        }
      ],
      "name": "WinnerPicked",
      "type": "event"
    },
    {
      "inputs": [],
      "name": "NFTContract",
      "outputs": [
        {
          "internalType": "contract ThunderDomeNFT",
          "name": "",
          "type": "address"
        }
      ],
      "stateMutability": "view",
      "type": "function"
    },
    {
      "inputs": [],
      "name": "enter",
      "outputs": [],
      "stateMutability": "nonpayable",
      "type": "function"
    },
    {
      "inputs": [],
      "name": "getNumberOfPlayers",
      "outputs": [
        {
          "internalType": "uint256",
          "name": "",
          "type": "uint256"
        }
      ],
      "stateMutability": "view",
      "type": "function"
    },
    {
      "inputs": [],
      "name": "getPlayers",
      "outputs": [
        {
          "internalType": "address[]",
          "name": "",
          "type": "address[]"
        }
      ],
      "stateMutability": "view",
      "type": "function"
    },
    {
      "inputs": [],
      "name": "manager",
      "outputs": [
        {
          "internalType": "address",
          "name": "",
          "type": "address"
        }
      ],
      "stateMutability": "view",
      "type": "function"
    },
    {
      "inputs": [
        {
          "internalType": "address",
          "name": "",
          "type": "address"
        },
        {
          "internalType": "address",
          "name": "",
          "type": "address"
        },
        {
          "internalType": "uint256",
          "name": "",
          "type": "uint256"
        },
        {
          "internalType": "bytes",
          "name": "",
          "type": "bytes"
        }
      ],
      "name": "onERC721Received",
      "outputs": [
        {
          "internalType": "bytes4",
          "name": "",
          "type": "bytes4"
        }
      ],
      "stateMutability": "pure",
      "type": "function"
    },
    {
      "inputs": [],
      "name": "pickWinner",
      "outputs": [],
      "stateMutability": "nonpayable",
      "type": "function"
    },
    {
      "inputs": [
        {
          "internalType": "uint256",
          "name": "",
          "type": "uint256"
        }
      ],
      "name": "players",
      "outputs": [
        {
          "internalType": "address",
          "name": "",
          "type": "address"
        }
      ],
      "stateMutability": "view",
      "type": "function"
    },
    {
      "inputs": [],
      "name": "prizeTokenId",
      "outputs": [
        {
          "internalType": "uint256",
          "name": "",
          "type": "uint256"
        }
      ],
      "stateMutability": "view",
      "type": "function"
    },
    {
      "inputs": [],
      "name": "winner",
      "outputs": [
        {
          "internalType": "address",
          "name": "",
          "type": "address"
        }
      ],
      "stateMutability": "view",
      "type": "function"
    }
  ],
  "bytecode": "0x60806040523480156200001157600080fd5b50604051620012973803806200129783398181016040528101906200003791906200016c565b336000806101000a81548173ffffffffffffffffffffffffffffffffffffffff021916908373ffffffffffffffffffffffffffffffffffffffff16021790555081600360006101000a81548173ffffffffffffffffffffffffffffffffffffffff021916908373ffffffffffffffffffffffffffffffffffffffff160217905550806004819055505050620001b3565b600080fd5b600073ffffffffffffffffffffffffffffffffffffffff82169050919050565b6000620000f982620000cc565b9050919050565b6200010b81620000ec565b81146200011757600080fd5b50565b6000815190506200012b8162000100565b92915050565b6000819050919050565b620001468162000131565b81146200015257600080fd5b50565b60008151905062000166816200013b565b92915050565b60008060408385031215620001865762000185620000c7565b5b600062000196858286016200011a565b9250506020620001a98582860162000155565b9150509250929050565b6110d480620001c36000396000f3fe608060405234801561001057600080fd5b506004361061009e5760003560e01c80638b5b9ccc116100665780638b5b9ccc14610137578063dfbf53ae14610155578063e97dcb6214610173578063f71d96cb1461017d578063fd6673f5146101ad5761009e565b80630b78824b146100a3578063150b7a02146100c157806331c2273b146100f1578063481c6a751461010f5780635d495aea1461012d575b600080fd5b6100ab6101cb565b6040516100b891906108d1565b60405180910390f35b6100db60048036038101906100d691906109e5565b6101d1565b6040516100e89190610aa8565b60405180910390f35b6100f96101e6565b6040516101069190610b22565b60405180910390f35b61011761020c565b6040516101249190610b4c565b60405180910390f35b610135610230565b005b61013f6104ca565b60405161014c9190610c25565b60405180910390f35b61015d610558565b60405161016a9190610b4c565b60405180910390f35b61017b61057e565b005b61019760048036038101906101929190610c47565b61078f565b6040516101a49190610b4c565b60405180910390f35b6101b56107ce565b6040516101c291906108d1565b60405180910390f35b60045481565b600063150b7a0260e01b905095945050505050565b600360009054906101000a900473ffffffffffffffffffffffffffffffffffffffff1681565b60008054906101000a900473ffffffffffffffffffffffffffffffffffffffff1681565b60008054906101000a900473ffffffffffffffffffffffffffffffffffffffff1673ffffffffffffffffffffffffffffffffffffffff163373ffffffffffffffffffffffffffffffffffffffff16146102be576040517f08c379a00000000000000000000000000000000000000000000000000000000081526004016102b590610cd1565b60405180910390fd5b60006001805490506102ce6107db565b6102d89190610d20565b9050600181815481106102ee576102ed610d51565b5b9060005260206000200160009054906101000a900473ffffffffffffffffffffffffffffffffffffffff16600260006101000a81548173ffffffffffffffffffffffffffffffffffffffff021916908373ffffffffffffffffffffffffffffffffffffffff160217905550600067ffffffffffffffff81111561037457610373610d80565b5b6040519080825280602002602001820160405280156103a25781602001602082028036833780820191505090505b50600190805190602001906103b8929190610811565b50600360009054906101000a900473ffffffffffffffffffffffffffffffffffffffff1673ffffffffffffffffffffffffffffffffffffffff166323b872dd30600260009054906101000a900473ffffffffffffffffffffffffffffffffffffffff166004546040518463ffffffff1660e01b815260040161043c93929190610daf565b600060405180830381600087803b15801561045657600080fd5b505af115801561046a573d6000803e3d6000fd5b505050507f5b690ec4a06fe979403046eaeea5b3ce38524683c3001f662c8b5a829632f7df600260009054906101000a900473ffffffffffffffffffffffffffffffffffffffff166040516104bf9190610b4c565b60405180910390a150565b6060600180548060200260200160405190810160405280929190818152602001828054801561054e57602002820191906000526020600020905b8160009054906101000a900473ffffffffffffffffffffffffffffffffffffffff1673ffffffffffffffffffffffffffffffffffffffff1681526020019060010190808311610504575b5050505050905090565b600260009054906101000a900473ffffffffffffffffffffffffffffffffffffffff1681565b600073ffffffffffffffffffffffffffffffffffffffff16600260009054906101000a900473ffffffffffffffffffffffffffffffffffffffff1673ffffffffffffffffffffffffffffffffffffffff161461060f576040517f08c379a000000000000000000000000000000000000000000000000000000000815260040161060690610e32565b60405180910390fd5b6000600360009054906101000a900473ffffffffffffffffffffffffffffffffffffffff1673ffffffffffffffffffffffffffffffffffffffff166370a08231336040518263ffffffff1660e01b815260040161066c9190610b4c565b602060405180830381865afa158015610689573d6000803e3d6000fd5b505050506040513d601f19601f820116820180604052508101906106ad9190610e67565b9050600081116106f2576040517f08c379a00000000000000000000000000000000000000000000000000000000081526004016106e990610f06565b60405180910390fd5b6001339080600181540180825580915050600190039060005260206000200160009091909190916101000a81548173ffffffffffffffffffffffffffffffffffffffff021916908373ffffffffffffffffffffffffffffffffffffffff1602179055507f0e44537a8964ff92b0d826fff0af69043866dd0b2802f952086b485b11cafc69336040516107849190610b4c565b60405180910390a150565b6001818154811061079f57600080fd5b906000526020600020016000915054906101000a900473ffffffffffffffffffffffffffffffffffffffff1681565b6000600180549050905090565b6000444260016040516020016107f393929190611065565b6040516020818303038152906040528051906020012060001c905090565b82805482825590600052602060002090810192821561088a579160200282015b828111156108895782518260006101000a81548173ffffffffffffffffffffffffffffffffffffffff021916908373ffffffffffffffffffffffffffffffffffffffff16021790555091602001919060010190610831565b5b509050610897919061089b565b5090565b5b808211156108b457600081600090555060010161089c565b5090565b6000819050919050565b6108cb816108b8565b82525050565b60006020820190506108e660008301846108c2565b92915050565b600080fd5b600080fd5b600073ffffffffffffffffffffffffffffffffffffffff82169050919050565b6000610921826108f6565b9050919050565b61093181610916565b811461093c57600080fd5b50565b60008135905061094e81610928565b92915050565b61095d816108b8565b811461096857600080fd5b50565b60008135905061097a81610954565b92915050565b600080fd5b600080fd5b600080fd5b60008083601f8401126109a5576109a4610980565b5b8235905067ffffffffffffffff8111156109c2576109c1610985565b5b6020830191508360018202830111156109de576109dd61098a565b5b9250929050565b600080600080600060808688031215610a0157610a006108ec565b5b6000610a0f8882890161093f565b9550506020610a208882890161093f565b9450506040610a318882890161096b565b935050606086013567ffffffffffffffff811115610a5257610a516108f1565b5b610a5e8882890161098f565b92509250509295509295909350565b60007fffffffff0000000000000000000000000000000000000000000000000000000082169050919050565b610aa281610a6d565b82525050565b6000602082019050610abd6000830184610a99565b92915050565b6000819050919050565b6000610ae8610ae3610ade846108f6565b610ac3565b6108f6565b9050919050565b6000610afa82610acd565b9050919050565b6000610b0c82610aef565b9050919050565b610b1c81610b01565b82525050565b6000602082019050610b376000830184610b13565b92915050565b610b4681610916565b82525050565b6000602082019050610b616000830184610b3d565b92915050565b600081519050919050565b600082825260208201905092915050565b6000819050602082019050919050565b610b9c81610916565b82525050565b6000610bae8383610b93565b60208301905092915050565b6000602082019050919050565b6000610bd282610b67565b610bdc8185610b72565b9350610be783610b83565b8060005b83811015610c18578151610bff8882610ba2565b9750610c0a83610bba565b925050600181019050610beb565b5085935050505092915050565b60006020820190508181036000830152610c3f8184610bc7565b905092915050565b600060208284031215610c5d57610c5c6108ec565b5b6000610c6b8482850161096b565b91505092915050565b600082825260208201905092915050565b7f4f6e6c79206d616e616765722063616e207069636b2077696e6e657200000000600082015250565b6000610cbb601c83610c74565b9150610cc682610c85565b602082019050919050565b60006020820190508181036000830152610cea81610cae565b9050919050565b7f4e487b7100000000000000000000000000000000000000000000000000000000600052601260045260246000fd5b6000610d2b826108b8565b9150610d36836108b8565b925082610d4657610d45610cf1565b5b828206905092915050565b7f4e487b7100000000000000000000000000000000000000000000000000000000600052603260045260246000fd5b7f4e487b7100000000000000000000000000000000000000000000000000000000600052604160045260246000fd5b6000606082019050610dc46000830186610b3d565b610dd16020830185610b3d565b610dde60408301846108c2565b949350505050565b7f57696e6e65722068617320616c7265616479206265656e207069636b65642e00600082015250565b6000610e1c601f83610c74565b9150610e2782610de6565b602082019050919050565b60006020820190508181036000830152610e4b81610e0f565b9050919050565b600081519050610e6181610954565b92915050565b600060208284031215610e7d57610e7c6108ec565b5b6000610e8b84828501610e52565b91505092915050565b7f596f75206e65656420746f206f776e20616e204e465420746f20656e7465722060008201527f746865206c75636b792064726177000000000000000000000000000000000000602082015250565b6000610ef0602e83610c74565b9150610efb82610e94565b604082019050919050565b60006020820190508181036000830152610f1f81610ee3565b9050919050565b6000819050919050565b610f41610f3c826108b8565b610f26565b82525050565b600081549050919050565b600081905092915050565b60008190508160005260206000209050919050565b610f7b81610916565b82525050565b6000610f8d8383610f72565b60208301905092915050565b60008160001c9050919050565b600073ffffffffffffffffffffffffffffffffffffffff82169050919050565b6000610fd9610fd483610f99565b610fa6565b9050919050565b6000610fec8254610fc6565b9050919050565b6000600182019050919050565b600061100b82610f47565b6110158185610f52565b935061102083610f5d565b8060005b838110156110585761103582610fe0565b61103f8882610f81565b975061104a83610ff3565b925050600181019050611024565b5085935050505092915050565b60006110718286610f30565b6020820191506110818285610f30565b6020820191506110918284611000565b915081905094935050505056fea2646970667358221220409c4ea310c4ff2ab50a81a501c209bf458552b663dc0686e49a0942d691451364736f6c63430008110033",
  "linkReferences": {},
  "deployedLinkReferences": {}
}