{
  "_format": "hh-sol-artifact-1",
  "contractName": "MarketPlace",
  "sourceName": "contracts/MarketPlace.sol",
  "abi": [
    {
      "inputs": [
        {
          "internalType": "address",
          "name": "_NFTContract",
          "type": "address"
        },
        {
          "internalType": "uint256",
          "name": "_commission",
          "type": "uint256"
        }
      ],
      "stateMutability": "payable",
      "type": "constructor"
    },
    {
      "anonymous": false,
      "inputs": [
        {
          "indexed": false,
          "internalType": "uint256",
          "name": "tokenId",
          "type": "uint256"
        },
        {
          "indexed": false,
          "internalType": "address",
          "name": "buyer",
          "type": "address"
        },
        {
          "indexed": false,
          "internalType": "uint256",
          "name": "depositAmount",
          "type": "uint256"
        }
      ],
      "name": "BuyerDeposited",
      "type": "event"
    },
    {
      "anonymous": false,
      "inputs": [
        {
          "indexed": false,
          "internalType": "uint256",
          "name": "tokenId",
          "type": "uint256"
        },
        {
          "indexed": false,
          "internalType": "uint256",
          "name": "amount",
          "type": "uint256"
        }
      ],
      "name": "BuyerWithdrawn",
      "type": "event"
    },
    {
      "anonymous": false,
      "inputs": [
        {
          "indexed": false,
          "internalType": "uint256",
          "name": "tokenId",
          "type": "uint256"
        }
      ],
      "name": "ListingAccepted",
      "type": "event"
    },
    {
      "anonymous": false,
      "inputs": [
        {
          "indexed": false,
          "internalType": "address",
          "name": "seller",
          "type": "address"
        },
        {
          "indexed": false,
          "internalType": "uint256",
          "name": "tokenId",
          "type": "uint256"
        },
        {
          "indexed": false,
          "internalType": "uint256",
          "name": "listingPrice",
          "type": "uint256"
        }
      ],
      "name": "ListingMade",
      "type": "event"
    },
    {
      "anonymous": false,
      "inputs": [
        {
          "indexed": false,
          "internalType": "address",
          "name": "seller",
          "type": "address"
        },
        {
          "indexed": false,
          "internalType": "uint256",
          "name": "tokenId",
          "type": "uint256"
        }
      ],
      "name": "ListingWithdrawn",
      "type": "event"
    },
    {
      "anonymous": false,
      "inputs": [
        {
          "indexed": true,
          "internalType": "address",
          "name": "previousOwner",
          "type": "address"
        },
        {
          "indexed": true,
          "internalType": "address",
          "name": "newOwner",
          "type": "address"
        }
      ],
      "name": "OwnershipTransferred",
      "type": "event"
    },
    {
      "inputs": [],
      "name": "NFTContract",
      "outputs": [
        {
          "internalType": "contract ThunderDomeNFT",
          "name": "",
          "type": "address"
        }
      ],
      "stateMutability": "view",
      "type": "function"
    },
    {
      "inputs": [
        {
          "internalType": "uint256",
          "name": "tokenId",
          "type": "uint256"
        }
      ],
      "name": "acceptOffer",
      "outputs": [],
      "stateMutability": "nonpayable",
      "type": "function"
    },
    {
      "inputs": [],
      "name": "adminPool",
      "outputs": [
        {
          "internalType": "uint256",
          "name": "",
          "type": "uint256"
        }
      ],
      "stateMutability": "view",
      "type": "function"
    },
    {
      "inputs": [
        {
          "internalType": "uint256",
          "name": "tokenId",
          "type": "uint256"
        }
      ],
      "name": "bid",
      "outputs": [],
      "stateMutability": "payable",
      "type": "function"
    },
    {
      "inputs": [],
      "name": "commission",
      "outputs": [
        {
          "internalType": "uint256",
          "name": "",
          "type": "uint256"
        }
      ],
      "stateMutability": "view",
      "type": "function"
    },
    {
      "inputs": [
        {
          "internalType": "uint256",
          "name": "",
          "type": "uint256"
        }
      ],
      "name": "listings",
      "outputs": [
        {
          "internalType": "address",
          "name": "seller",
          "type": "address"
        },
        {
          "internalType": "uint256",
          "name": "listingPrice",
          "type": "uint256"
        },
        {
          "internalType": "address",
          "name": "buyer",
          "type": "address"
        },
        {
          "internalType": "uint256",
          "name": "buyerDeposit",
          "type": "uint256"
        }
      ],
      "stateMutability": "view",
      "type": "function"
    },
    {
      "inputs": [
        {
          "internalType": "uint256",
          "name": "tokenId",
          "type": "uint256"
        },
        {
          "internalType": "uint256",
          "name": "price",
          "type": "uint256"
        }
      ],
      "name": "makeListing",
      "outputs": [],
      "stateMutability": "nonpayable",
      "type": "function"
    },
    {
      "inputs": [],
      "name": "owner",
      "outputs": [
        {
          "internalType": "address",
          "name": "",
          "type": "address"
        }
      ],
      "stateMutability": "view",
      "type": "function"
    },
    {
      "inputs": [],
      "name": "publicPool",
      "outputs": [
        {
          "internalType": "uint256",
          "name": "",
          "type": "uint256"
        }
      ],
      "stateMutability": "view",
      "type": "function"
    },
    {
      "inputs": [],
      "name": "renounceOwnership",
      "outputs": [],
      "stateMutability": "nonpayable",
      "type": "function"
    },
    {
      "inputs": [
        {
          "internalType": "address",
          "name": "newOwner",
          "type": "address"
        }
      ],
      "name": "transferOwnership",
      "outputs": [],
      "stateMutability": "nonpayable",
      "type": "function"
    },
    {
      "inputs": [
        {
          "internalType": "uint256",
          "name": "amount",
          "type": "uint256"
        }
      ],
      "name": "withdrawAdminPool",
      "outputs": [],
      "stateMutability": "nonpayable",
      "type": "function"
    },
    {
      "inputs": [
        {
          "internalType": "uint256",
          "name": "tokenId",
          "type": "uint256"
        }
      ],
      "name": "withdrawBid",
      "outputs": [],
      "stateMutability": "nonpayable",
      "type": "function"
    },
    {
      "inputs": [
        {
          "internalType": "uint256",
          "name": "tokenId",
          "type": "uint256"
        }
      ],
      "name": "withdrawListing",
      "outputs": [],
      "stateMutability": "nonpayable",
      "type": "function"
    }
  ],
  "bytecode": "0x6080604052604051620022af380380620022af833981810160405281019062000029919062000211565b620000496200003d620000a060201b60201c565b620000a860201b60201c565b6001808190555081600560006101000a81548173ffffffffffffffffffffffffffffffffffffffff021916908373ffffffffffffffffffffffffffffffffffffffff16021790555080600481905550505062000258565b600033905090565b60008060009054906101000a900473ffffffffffffffffffffffffffffffffffffffff169050816000806101000a81548173ffffffffffffffffffffffffffffffffffffffff021916908373ffffffffffffffffffffffffffffffffffffffff1602179055508173ffffffffffffffffffffffffffffffffffffffff168173ffffffffffffffffffffffffffffffffffffffff167f8be0079c531659141344cd1fd0a4f28419497f9722a3daafe3b4186f6b6457e060405160405180910390a35050565b600080fd5b600073ffffffffffffffffffffffffffffffffffffffff82169050919050565b60006200019e8262000171565b9050919050565b620001b08162000191565b8114620001bc57600080fd5b50565b600081519050620001d081620001a5565b92915050565b6000819050919050565b620001eb81620001d6565b8114620001f757600080fd5b50565b6000815190506200020b81620001e0565b92915050565b600080604083850312156200022b576200022a6200016c565b5b60006200023b85828601620001bf565b92505060206200024e85828601620001fa565b9150509250929050565b61204780620002686000396000f3fe6080604052600436106100dd5760003560e01c80638da5cb5b1161007f578063c815729d11610059578063c815729d14610265578063de74e57b1461028e578063e1489191146102ce578063f2fde38b146102f9576100dd565b80638da5cb5b146101e6578063aec6e27314610211578063b86a1fb21461023a576100dd565b8063454a2ab3116100bb578063454a2ab31461015f578063668ababb1461017b578063715018a6146101a6578063795a25d1146101bd576100dd565b80630eaaf4c8146100e2578063236383361461010b57806331c2273b14610134575b600080fd5b3480156100ee57600080fd5b506101096004803603810190610104919061157b565b610322565b005b34801561011757600080fd5b50610132600480360381019061012d919061157b565b610591565b005b34801561014057600080fd5b50610149610662565b6040516101569190611627565b60405180910390f35b6101796004803603810190610174919061157b565b610688565b005b34801561018757600080fd5b506101906108df565b60405161019d9190611651565b60405180910390f35b3480156101b257600080fd5b506101bb6108e5565b005b3480156101c957600080fd5b506101e460048036038101906101df919061166c565b6108f9565b005b3480156101f257600080fd5b506101fb610a7d565b60405161020891906116cd565b60405180910390f35b34801561021d57600080fd5b506102386004803603810190610233919061157b565b610aa6565b005b34801561024657600080fd5b5061024f610e42565b60405161025c9190611651565b60405180910390f35b34801561027157600080fd5b5061028c6004803603810190610287919061157b565b610e48565b005b34801561029a57600080fd5b506102b560048036038101906102b0919061157b565b6112fd565b6040516102c594939291906116e8565b60405180910390f35b3480156102da57600080fd5b506102e361136d565b6040516102f09190611651565b60405180910390f35b34801561030557600080fd5b50610320600480360381019061031b9190611759565b611373565b005b600260015403610367576040517f08c379a000000000000000000000000000000000000000000000000000000000815260040161035e906117e3565b60405180910390fd5b60026001819055503373ffffffffffffffffffffffffffffffffffffffff166006600083815260200190815260200160002060020160009054906101000a900473ffffffffffffffffffffffffffffffffffffffff1673ffffffffffffffffffffffffffffffffffffffff1614610413576040517f08c379a000000000000000000000000000000000000000000000000000000000815260040161040a9061184f565b60405180910390fd5b60006006600083815260200190815260200160002060030154905060006006600084815260200190815260200160002060020160006101000a81548173ffffffffffffffffffffffffffffffffffffffff021916908373ffffffffffffffffffffffffffffffffffffffff1602179055506000600660008481526020019081526020016000206003018190555060003373ffffffffffffffffffffffffffffffffffffffff16826040516104c6906118a0565b60006040518083038185875af1925050503d8060008114610503576040519150601f19603f3d011682016040523d82523d6000602084013e610508565b606091505b505090508061054c576040517f08c379a000000000000000000000000000000000000000000000000000000000815260040161054390611927565b60405180910390fd5b7f925f130e7d12fe2846de0bf3004358a9831255f132113357966450f0628c91b4838360405161057d929190611947565b60405180910390a150506001808190555050565b6105996113f6565b60003373ffffffffffffffffffffffffffffffffffffffff16826040516105bf906118a0565b60006040518083038185875af1925050503d80600081146105fc576040519150601f19603f3d011682016040523d82523d6000602084013e610601565b606091505b5050905080610645576040517f08c379a000000000000000000000000000000000000000000000000000000000815260040161063c906119e2565b60405180910390fd5b81600260008282546106579190611a31565b925050819055505050565b600560009054906101000a900473ffffffffffffffffffffffffffffffffffffffff1681565b600073ffffffffffffffffffffffffffffffffffffffff166006600083815260200190815260200160002060000160009054906101000a900473ffffffffffffffffffffffffffffffffffffffff1673ffffffffffffffffffffffffffffffffffffffff160361072d576040517f08c379a000000000000000000000000000000000000000000000000000000000815260040161072490611ab1565b60405180910390fd5b600073ffffffffffffffffffffffffffffffffffffffff166006600083815260200190815260200160002060020160009054906101000a900473ffffffffffffffffffffffffffffffffffffffff1673ffffffffffffffffffffffffffffffffffffffff16146107d2576040517f08c379a00000000000000000000000000000000000000000000000000000000081526004016107c990611b43565b60405180910390fd5b60006006600083815260200190815260200160002060010154905080341015610830576040517f08c379a000000000000000000000000000000000000000000000000000000000815260040161082790611baf565b60405180910390fd5b336006600084815260200190815260200160002060020160006101000a81548173ffffffffffffffffffffffffffffffffffffffff021916908373ffffffffffffffffffffffffffffffffffffffff1602179055503460066000848152602001908152602001600020600301819055507fa01aa5887b63b11d27599b118b112f8dabb5d4b464be15ce05b1d7a6028eca1f8233346040516108d393929190611bcf565b60405180910390a15050565b60035481565b6108ed6113f6565b6108f76000611474565b565b600454811161093d576040517f08c379a000000000000000000000000000000000000000000000000000000000815260040161093490611c52565b60405180910390fd5b600560009054906101000a900473ffffffffffffffffffffffffffffffffffffffff1673ffffffffffffffffffffffffffffffffffffffff166323b872dd3330856040518463ffffffff1660e01b815260040161099c93929190611c72565b600060405180830381600087803b1580156109b657600080fd5b505af11580156109ca573d6000803e3d6000fd5b50505050336006600084815260200190815260200160002060000160006101000a81548173ffffffffffffffffffffffffffffffffffffffff021916908373ffffffffffffffffffffffffffffffffffffffff1602179055508060066000848152602001908152602001600020600101819055507fe2e3d29d42c17c42d5ba24e3da06e72d7914cfb5bc9599a24abcc667c04838e7338383604051610a7193929190611ca9565b60405180910390a15050565b60008060009054906101000a900473ffffffffffffffffffffffffffffffffffffffff16905090565b600260015403610aeb576040517f08c379a0000000000000000000000000000000000000000000000000000000008152600401610ae2906117e3565b60405180910390fd5b60026001819055503373ffffffffffffffffffffffffffffffffffffffff166006600083815260200190815260200160002060000160009054906101000a900473ffffffffffffffffffffffffffffffffffffffff1673ffffffffffffffffffffffffffffffffffffffff1614610b97576040517f08c379a0000000000000000000000000000000000000000000000000000000008152600401610b8e90611d52565b60405180910390fd5b60006006600083815260200190815260200160002060000160006101000a81548173ffffffffffffffffffffffffffffffffffffffff021916908373ffffffffffffffffffffffffffffffffffffffff160217905550600560009054906101000a900473ffffffffffffffffffffffffffffffffffffffff1673ffffffffffffffffffffffffffffffffffffffff166323b872dd3033846040518463ffffffff1660e01b8152600401610c4c93929190611c72565b600060405180830381600087803b158015610c6657600080fd5b505af1158015610c7a573d6000803e3d6000fd5b505050506000600660008381526020019081526020016000206003015490506000811115610dfe5760006006600084815260200190815260200160002060020160009054906101000a900473ffffffffffffffffffffffffffffffffffffffff16905060006006600085815260200190815260200160002060020160006101000a81548173ffffffffffffffffffffffffffffffffffffffff021916908373ffffffffffffffffffffffffffffffffffffffff1602179055506000600660008581526020019081526020016000206003018190555060008173ffffffffffffffffffffffffffffffffffffffff1683604051610d75906118a0565b60006040518083038185875af1925050503d8060008114610db2576040519150601f19603f3d011682016040523d82523d6000602084013e610db7565b606091505b5050905080610dfb576040517f08c379a0000000000000000000000000000000000000000000000000000000008152600401610df290611dbe565b60405180910390fd5b50505b7fd8d8dd977744d71ee93407138bda907529b982980d73888fe0c9b2e65a22b54a3383604051610e2f929190611dde565b60405180910390a1506001808190555050565b60025481565b600260015403610e8d576040517f08c379a0000000000000000000000000000000000000000000000000000000008152600401610e84906117e3565b60405180910390fd5b60026001819055503373ffffffffffffffffffffffffffffffffffffffff166006600083815260200190815260200160002060000160009054906101000a900473ffffffffffffffffffffffffffffffffffffffff1673ffffffffffffffffffffffffffffffffffffffff1614610f39576040517f08c379a0000000000000000000000000000000000000000000000000000000008152600401610f309061184f565b60405180910390fd5b600073ffffffffffffffffffffffffffffffffffffffff166006600083815260200190815260200160002060020160009054906101000a900473ffffffffffffffffffffffffffffffffffffffff1673ffffffffffffffffffffffffffffffffffffffff1603610fde576040517f08c379a0000000000000000000000000000000000000000000000000000000008152600401610fd590611e53565b60405180910390fd5b60006006600083815260200190815260200160002060000160009054906101000a900473ffffffffffffffffffffffffffffffffffffffff1690506000600454600660008581526020019081526020016000206003015461103f9190611a31565b905060006006600085815260200190815260200160002060020160009054906101000a900473ffffffffffffffffffffffffffffffffffffffff16905060006006600086815260200190815260200160002060000160006101000a81548173ffffffffffffffffffffffffffffffffffffffff021916908373ffffffffffffffffffffffffffffffffffffffff1602179055506000600660008681526020019081526020016000206001018190555060006006600086815260200190815260200160002060020160006101000a81548173ffffffffffffffffffffffffffffffffffffffff021916908373ffffffffffffffffffffffffffffffffffffffff16021790555060006006600086815260200190815260200160002060030181905550600560009054906101000a900473ffffffffffffffffffffffffffffffffffffffff1673ffffffffffffffffffffffffffffffffffffffff166323b872dd3083876040518463ffffffff1660e01b81526004016111bf93929190611c72565b600060405180830381600087803b1580156111d957600080fd5b505af11580156111ed573d6000803e3d6000fd5b5050505060008373ffffffffffffffffffffffffffffffffffffffff1683604051611217906118a0565b60006040518083038185875af1925050503d8060008114611254576040519150601f19603f3d011682016040523d82523d6000602084013e611259565b606091505b505090508061129d576040517f08c379a000000000000000000000000000000000000000000000000000000000815260040161129490611ebf565b60405180910390fd5b600454600260008282546112b19190611edf565b925050819055507ff4578ca16b456121c9836dcfd8be1747fedeebbf554e84c09157ccfc62498b7e856040516112e79190611651565b60405180910390a1505050506001808190555050565b60066020528060005260406000206000915090508060000160009054906101000a900473ffffffffffffffffffffffffffffffffffffffff16908060010154908060020160009054906101000a900473ffffffffffffffffffffffffffffffffffffffff16908060030154905084565b60045481565b61137b6113f6565b600073ffffffffffffffffffffffffffffffffffffffff168173ffffffffffffffffffffffffffffffffffffffff16036113ea576040517f08c379a00000000000000000000000000000000000000000000000000000000081526004016113e190611f85565b60405180910390fd5b6113f381611474565b50565b6113fe611538565b73ffffffffffffffffffffffffffffffffffffffff1661141c610a7d565b73ffffffffffffffffffffffffffffffffffffffff1614611472576040517f08c379a000000000000000000000000000000000000000000000000000000000815260040161146990611ff1565b60405180910390fd5b565b60008060009054906101000a900473ffffffffffffffffffffffffffffffffffffffff169050816000806101000a81548173ffffffffffffffffffffffffffffffffffffffff021916908373ffffffffffffffffffffffffffffffffffffffff1602179055508173ffffffffffffffffffffffffffffffffffffffff168173ffffffffffffffffffffffffffffffffffffffff167f8be0079c531659141344cd1fd0a4f28419497f9722a3daafe3b4186f6b6457e060405160405180910390a35050565b600033905090565b600080fd5b6000819050919050565b61155881611545565b811461156357600080fd5b50565b6000813590506115758161154f565b92915050565b60006020828403121561159157611590611540565b5b600061159f84828501611566565b91505092915050565b600073ffffffffffffffffffffffffffffffffffffffff82169050919050565b6000819050919050565b60006115ed6115e86115e3846115a8565b6115c8565b6115a8565b9050919050565b60006115ff826115d2565b9050919050565b6000611611826115f4565b9050919050565b61162181611606565b82525050565b600060208201905061163c6000830184611618565b92915050565b61164b81611545565b82525050565b60006020820190506116666000830184611642565b92915050565b6000806040838503121561168357611682611540565b5b600061169185828601611566565b92505060206116a285828601611566565b9150509250929050565b60006116b7826115a8565b9050919050565b6116c7816116ac565b82525050565b60006020820190506116e260008301846116be565b92915050565b60006080820190506116fd60008301876116be565b61170a6020830186611642565b61171760408301856116be565b6117246060830184611642565b95945050505050565b611736816116ac565b811461174157600080fd5b50565b6000813590506117538161172d565b92915050565b60006020828403121561176f5761176e611540565b5b600061177d84828501611744565b91505092915050565b600082825260208201905092915050565b7f5265656e7472616e637947756172643a207265656e7472616e742063616c6c00600082015250565b60006117cd601f83611786565b91506117d882611797565b602082019050919050565b600060208201905081810360008301526117fc816117c0565b9050919050565b7f596f7520617265206e6f7420746865206f776e65720000000000000000000000600082015250565b6000611839601583611786565b915061184482611803565b602082019050919050565b600060208201905081810360008301526118688161182c565b9050919050565b600081905092915050565b50565b600061188a60008361186f565b91506118958261187a565b600082019050919050565b60006118ab8261187d565b9150819050919050565b7f4661696c656420746f207769746864726177206d6f6e65792066726f6d20636f60008201527f6e74726163740000000000000000000000000000000000000000000000000000602082015250565b6000611911602683611786565b915061191c826118b5565b604082019050919050565b6000602082019050818103600083015261194081611904565b9050919050565b600060408201905061195c6000830185611642565b6119696020830184611642565b9392505050565b7f4661696c656420746f2073656e6420636f6d6d697373696f6e20746f20636f6e60008201527f7472616374206f776e6572000000000000000000000000000000000000000000602082015250565b60006119cc602b83611786565b91506119d782611970565b604082019050919050565b600060208201905081810360008301526119fb816119bf565b9050919050565b7f4e487b7100000000000000000000000000000000000000000000000000000000600052601160045260246000fd5b6000611a3c82611545565b9150611a4783611545565b9250828203905081811115611a5f57611a5e611a02565b5b92915050565b7f54686973204e4654206973206e6f7420666f722073616c650000000000000000600082015250565b6000611a9b601883611786565b9150611aa682611a65565b602082019050919050565b60006020820190508181036000830152611aca81611a8e565b9050919050565b7f416e206f666665722068617320616c7265616479206265656e206d616465206660008201527f6f722074686973206c697374696e670000000000000000000000000000000000602082015250565b6000611b2d602f83611786565b9150611b3882611ad1565b604082019050919050565b60006020820190508181036000830152611b5c81611b20565b9050919050565b7f496e73756666696369656e742076616c75650000000000000000000000000000600082015250565b6000611b99601283611786565b9150611ba482611b63565b602082019050919050565b60006020820190508181036000830152611bc881611b8c565b9050919050565b6000606082019050611be46000830186611642565b611bf160208301856116be565b611bfe6040830184611642565b949350505050565b7f546865206c697374696e6720707269636520697320746f6f206c6f7700000000600082015250565b6000611c3c601c83611786565b9150611c4782611c06565b602082019050919050565b60006020820190508181036000830152611c6b81611c2f565b9050919050565b6000606082019050611c8760008301866116be565b611c9460208301856116be565b611ca16040830184611642565b949350505050565b6000606082019050611cbe60008301866116be565b611ccb6020830185611642565b611cd86040830184611642565b949350505050565b7f4f6e6c792073656c6c65722063616e20776974686472617720746865206c697360008201527f74696e6700000000000000000000000000000000000000000000000000000000602082015250565b6000611d3c602483611786565b9150611d4782611ce0565b604082019050919050565b60006020820190508181036000830152611d6b81611d2f565b9050919050565b7f4661696c656420746f20726566756e6420626964646572000000000000000000600082015250565b6000611da8601783611786565b9150611db382611d72565b602082019050919050565b60006020820190508181036000830152611dd781611d9b565b9050919050565b6000604082019050611df360008301856116be565b611e006020830184611642565b9392505050565b7f416e206f6666657220686173206e6f74206265656e206d616465000000000000600082015250565b6000611e3d601a83611786565b9150611e4882611e07565b602082019050919050565b60006020820190508181036000830152611e6c81611e30565b9050919050565b7f4661696c656420746f2073656e64206d6f6e657920746f2073656c6c65720000600082015250565b6000611ea9601e83611786565b9150611eb482611e73565b602082019050919050565b60006020820190508181036000830152611ed881611e9c565b9050919050565b6000611eea82611545565b9150611ef583611545565b9250828201905080821115611f0d57611f0c611a02565b5b92915050565b7f4f776e61626c653a206e6577206f776e657220697320746865207a65726f206160008201527f6464726573730000000000000000000000000000000000000000000000000000602082015250565b6000611f6f602683611786565b9150611f7a82611f13565b604082019050919050565b60006020820190508181036000830152611f9e81611f62565b9050919050565b7f4f776e61626c653a2063616c6c6572206973206e6f7420746865206f776e6572600082015250565b6000611fdb602083611786565b9150611fe682611fa5565b602082019050919050565b6000602082019050818103600083015261200a81611fce565b905091905056fea2646970667358221220d534bc7e1ee133ae9354e019366f01f941a67dc251911681b7bb4d6f2b8b29f264736f6c63430008110033",
  "linkReferences": {},
  "deployedLinkReferences": {}
}