{
  "_format": "hh-sol-artifact-1",
  "contractName": "NFTSale",
  "sourceName": "contracts/NFTSale.sol",
  "abi": [
    {
      "inputs": [
        {
          "internalType": "uint256",
          "name": "_nftPrice",
          "type": "uint256"
        },
        {
          "internalType": "address",
          "name": "_NFTContract",
          "type": "address"
        }
      ],
      "stateMutability": "payable",
      "type": "constructor"
    },
    {
      "anonymous": false,
      "inputs": [
        {
          "indexed": true,
          "internalType": "address",
          "name": "previousOwner",
          "type": "address"
        },
        {
          "indexed": true,
          "internalType": "address",
          "name": "newOwner",
          "type": "address"
        }
      ],
      "name": "OwnershipTransferred",
      "type": "event"
    },
    {
      "anonymous": false,
      "inputs": [
        {
          "indexed": false,
          "internalType": "address",
          "name": "buyer",
          "type": "address"
        },
        {
          "indexed": false,
          "internalType": "uint256",
          "name": "tokenId",
          "type": "uint256"
        },
        {
          "indexed": false,
          "internalType": "uint256",
          "name": "amountReceived",
          "type": "uint256"
        }
      ],
      "name": "Purchased",
      "type": "event"
    },
    {
      "anonymous": false,
      "inputs": [
        {
          "indexed": false,
          "internalType": "address",
          "name": "withdrawer",
          "type": "address"
        },
        {
          "indexed": false,
          "internalType": "uint256",
          "name": "amount",
          "type": "uint256"
        }
      ],
      "name": "Withdrawn",
      "type": "event"
    },
    {
      "inputs": [],
      "name": "NFTContract",
      "outputs": [
        {
          "internalType": "contract ThunderDomeNFT",
          "name": "",
          "type": "address"
        }
      ],
      "stateMutability": "view",
      "type": "function"
    },
    {
      "inputs": [],
      "name": "adminPool",
      "outputs": [
        {
          "internalType": "uint256",
          "name": "",
          "type": "uint256"
        }
      ],
      "stateMutability": "view",
      "type": "function"
    },
    {
      "inputs": [],
      "name": "nftPrice",
      "outputs": [
        {
          "internalType": "uint256",
          "name": "",
          "type": "uint256"
        }
      ],
      "stateMutability": "view",
      "type": "function"
    },
    {
      "inputs": [
        {
          "internalType": "address",
          "name": "",
          "type": "address"
        },
        {
          "internalType": "address",
          "name": "",
          "type": "address"
        },
        {
          "internalType": "uint256",
          "name": "",
          "type": "uint256"
        },
        {
          "internalType": "bytes",
          "name": "",
          "type": "bytes"
        }
      ],
      "name": "onERC721Received",
      "outputs": [
        {
          "internalType": "bytes4",
          "name": "",
          "type": "bytes4"
        }
      ],
      "stateMutability": "pure",
      "type": "function"
    },
    {
      "inputs": [],
      "name": "owner",
      "outputs": [
        {
          "internalType": "address",
          "name": "",
          "type": "address"
        }
      ],
      "stateMutability": "view",
      "type": "function"
    },
    {
      "inputs": [
        {
          "internalType": "uint256",
          "name": "tokenId",
          "type": "uint256"
        }
      ],
      "name": "purchaseNFT",
      "outputs": [],
      "stateMutability": "payable",
      "type": "function"
    },
    {
      "inputs": [],
      "name": "renounceOwnership",
      "outputs": [],
      "stateMutability": "nonpayable",
      "type": "function"
    },
    {
      "inputs": [
        {
          "internalType": "address",
          "name": "newOwner",
          "type": "address"
        }
      ],
      "name": "transferOwnership",
      "outputs": [],
      "stateMutability": "nonpayable",
      "type": "function"
    },
    {
      "inputs": [
        {
          "internalType": "uint256",
          "name": "amount",
          "type": "uint256"
        }
      ],
      "name": "withdraw",
      "outputs": [],
      "stateMutability": "nonpayable",
      "type": "function"
    }
  ],
  "bytecode": "0x60806040526040516200112038038062001120833981810160405281019062000029919062000211565b620000496200003d620000a060201b60201c565b620000a860201b60201c565b600180819055508160028190555080600360006101000a81548173ffffffffffffffffffffffffffffffffffffffff021916908373ffffffffffffffffffffffffffffffffffffffff160217905550505062000258565b600033905090565b60008060009054906101000a900473ffffffffffffffffffffffffffffffffffffffff169050816000806101000a81548173ffffffffffffffffffffffffffffffffffffffff021916908373ffffffffffffffffffffffffffffffffffffffff1602179055508173ffffffffffffffffffffffffffffffffffffffff168173ffffffffffffffffffffffffffffffffffffffff167f8be0079c531659141344cd1fd0a4f28419497f9722a3daafe3b4186f6b6457e060405160405180910390a35050565b600080fd5b6000819050919050565b620001868162000171565b81146200019257600080fd5b50565b600081519050620001a6816200017b565b92915050565b600073ffffffffffffffffffffffffffffffffffffffff82169050919050565b6000620001d982620001ac565b9050919050565b620001eb81620001cc565b8114620001f757600080fd5b50565b6000815190506200020b81620001e0565b92915050565b600080604083850312156200022b576200022a6200016c565b5b60006200023b8582860162000195565b92505060206200024e85828601620001fa565b9150509250929050565b610eb880620002686000396000f3fe6080604052600436106100865760003560e01c806331c2273b1161005957806331c2273b14610138578063715018a6146101635780638da5cb5b1461017a578063b86a1fb2146101a5578063f2fde38b146101d057610086565b80630d39fc811461008b578063150b7a02146100b6578063150bde03146100f35780632e1a7d4d1461010f575b600080fd5b34801561009757600080fd5b506100a06101f9565b6040516100ad9190610739565b60405180910390f35b3480156100c257600080fd5b506100dd60048036038101906100d8919061084d565b6101ff565b6040516100ea9190610910565b60405180910390f35b61010d6004803603810190610108919061092b565b610214565b005b34801561011b57600080fd5b506101366004803603810190610131919061092b565b61039b565b005b34801561014457600080fd5b5061014d6104ea565b60405161015a91906109b7565b60405180910390f35b34801561016f57600080fd5b50610178610510565b005b34801561018657600080fd5b5061018f610524565b60405161019c91906109e1565b60405180910390f35b3480156101b157600080fd5b506101ba61054d565b6040516101c79190610739565b60405180910390f35b3480156101dc57600080fd5b506101f760048036038101906101f291906109fc565b610553565b005b60025481565b600063150b7a0260e01b905095945050505050565b600260015403610259576040517f08c379a000000000000000000000000000000000000000000000000000000000815260040161025090610a86565b60405180910390fd5b600260018190555060003490506002548110156102ab576040517f08c379a00000000000000000000000000000000000000000000000000000000081526004016102a290610af2565b60405180910390fd5b80600460008282546102bd9190610b41565b92505081905550600360009054906101000a900473ffffffffffffffffffffffffffffffffffffffff1673ffffffffffffffffffffffffffffffffffffffff166323b872dd3033856040518463ffffffff1660e01b815260040161032393929190610b75565b600060405180830381600087803b15801561033d57600080fd5b505af1158015610351573d6000803e3d6000fd5b505050507ff761777482b4b40d2bcc0d050cfba6829900a2d8b3484bd0244ec0feeb3db50433838360405161038893929190610bac565b60405180910390a1506001808190555050565b6103a36105d6565b6004548111156103e8576040517f08c379a00000000000000000000000000000000000000000000000000000000081526004016103df90610c2f565b60405180910390fd5b80600460008282546103fa9190610c4f565b9250508190555060003373ffffffffffffffffffffffffffffffffffffffff168260405161042790610cb4565b60006040518083038185875af1925050503d8060008114610464576040519150601f19603f3d011682016040523d82523d6000602084013e610469565b606091505b50509050806104ad576040517f08c379a00000000000000000000000000000000000000000000000000000000081526004016104a490610d3b565b60405180910390fd5b7f7084f5476618d8e60b11ef0d7d3f06914655adb8793e28ff7f018d4c76d505d533836040516104de929190610d5b565b60405180910390a15050565b600360009054906101000a900473ffffffffffffffffffffffffffffffffffffffff1681565b6105186105d6565b6105226000610654565b565b60008060009054906101000a900473ffffffffffffffffffffffffffffffffffffffff16905090565b60045481565b61055b6105d6565b600073ffffffffffffffffffffffffffffffffffffffff168173ffffffffffffffffffffffffffffffffffffffff16036105ca576040517f08c379a00000000000000000000000000000000000000000000000000000000081526004016105c190610df6565b60405180910390fd5b6105d381610654565b50565b6105de610718565b73ffffffffffffffffffffffffffffffffffffffff166105fc610524565b73ffffffffffffffffffffffffffffffffffffffff1614610652576040517f08c379a000000000000000000000000000000000000000000000000000000000815260040161064990610e62565b60405180910390fd5b565b60008060009054906101000a900473ffffffffffffffffffffffffffffffffffffffff169050816000806101000a81548173ffffffffffffffffffffffffffffffffffffffff021916908373ffffffffffffffffffffffffffffffffffffffff1602179055508173ffffffffffffffffffffffffffffffffffffffff168173ffffffffffffffffffffffffffffffffffffffff167f8be0079c531659141344cd1fd0a4f28419497f9722a3daafe3b4186f6b6457e060405160405180910390a35050565b600033905090565b6000819050919050565b61073381610720565b82525050565b600060208201905061074e600083018461072a565b92915050565b600080fd5b600080fd5b600073ffffffffffffffffffffffffffffffffffffffff82169050919050565b60006107898261075e565b9050919050565b6107998161077e565b81146107a457600080fd5b50565b6000813590506107b681610790565b92915050565b6107c581610720565b81146107d057600080fd5b50565b6000813590506107e2816107bc565b92915050565b600080fd5b600080fd5b600080fd5b60008083601f84011261080d5761080c6107e8565b5b8235905067ffffffffffffffff81111561082a576108296107ed565b5b602083019150836001820283011115610846576108456107f2565b5b9250929050565b60008060008060006080868803121561086957610868610754565b5b6000610877888289016107a7565b9550506020610888888289016107a7565b9450506040610899888289016107d3565b935050606086013567ffffffffffffffff8111156108ba576108b9610759565b5b6108c6888289016107f7565b92509250509295509295909350565b60007fffffffff0000000000000000000000000000000000000000000000000000000082169050919050565b61090a816108d5565b82525050565b60006020820190506109256000830184610901565b92915050565b60006020828403121561094157610940610754565b5b600061094f848285016107d3565b91505092915050565b6000819050919050565b600061097d6109786109738461075e565b610958565b61075e565b9050919050565b600061098f82610962565b9050919050565b60006109a182610984565b9050919050565b6109b181610996565b82525050565b60006020820190506109cc60008301846109a8565b92915050565b6109db8161077e565b82525050565b60006020820190506109f660008301846109d2565b92915050565b600060208284031215610a1257610a11610754565b5b6000610a20848285016107a7565b91505092915050565b600082825260208201905092915050565b7f5265656e7472616e637947756172643a207265656e7472616e742063616c6c00600082015250565b6000610a70601f83610a29565b9150610a7b82610a3a565b602082019050919050565b60006020820190508181036000830152610a9f81610a63565b9050919050565b7f496e73756666696369656e742076616c75652073656e74000000000000000000600082015250565b6000610adc601783610a29565b9150610ae782610aa6565b602082019050919050565b60006020820190508181036000830152610b0b81610acf565b9050919050565b7f4e487b7100000000000000000000000000000000000000000000000000000000600052601160045260246000fd5b6000610b4c82610720565b9150610b5783610720565b9250828201905080821115610b6f57610b6e610b12565b5b92915050565b6000606082019050610b8a60008301866109d2565b610b9760208301856109d2565b610ba4604083018461072a565b949350505050565b6000606082019050610bc160008301866109d2565b610bce602083018561072a565b610bdb604083018461072a565b949350505050565b7f416d6f756e74206c657373207468616e20617661696c61626c65000000000000600082015250565b6000610c19601a83610a29565b9150610c2482610be3565b602082019050919050565b60006020820190508181036000830152610c4881610c0c565b9050919050565b6000610c5a82610720565b9150610c6583610720565b9250828203905081811115610c7d57610c7c610b12565b5b92915050565b600081905092915050565b50565b6000610c9e600083610c83565b9150610ca982610c8e565b600082019050919050565b6000610cbf82610c91565b9150819050919050565b7f4661696c656420746f207769746864726177206d6f6e65792066726f6d20636f60008201527f6e74726163740000000000000000000000000000000000000000000000000000602082015250565b6000610d25602683610a29565b9150610d3082610cc9565b604082019050919050565b60006020820190508181036000830152610d5481610d18565b9050919050565b6000604082019050610d7060008301856109d2565b610d7d602083018461072a565b9392505050565b7f4f776e61626c653a206e6577206f776e657220697320746865207a65726f206160008201527f6464726573730000000000000000000000000000000000000000000000000000602082015250565b6000610de0602683610a29565b9150610deb82610d84565b604082019050919050565b60006020820190508181036000830152610e0f81610dd3565b9050919050565b7f4f776e61626c653a2063616c6c6572206973206e6f7420746865206f776e6572600082015250565b6000610e4c602083610a29565b9150610e5782610e16565b602082019050919050565b60006020820190508181036000830152610e7b81610e3f565b905091905056fea2646970667358221220b968492037aa92ac1cf9ae637c894d83200ae509e9aebfa7a78beeefae16116164736f6c63430008110033",
  "linkReferences": {},
  "deployedLinkReferences": {}
}