{
  "_format": "hh-sol-artifact-1",
  "contractName": "ThunderDomeNFT",
  "sourceName": "contracts/ThunderDomeNFT.sol",
  "abi": [
    {
      "inputs": [],
      "stateMutability": "nonpayable",
      "type": "constructor"
    },
    {
      "anonymous": false,
      "inputs": [
        {
          "indexed": true,
          "internalType": "address",
          "name": "owner",
          "type": "address"
        },
        {
          "indexed": true,
          "internalType": "address",
          "name": "approved",
          "type": "address"
        },
        {
          "indexed": true,
          "internalType": "uint256",
          "name": "tokenId",
          "type": "uint256"
        }
      ],
      "name": "Approval",
      "type": "event"
    },
    {
      "anonymous": false,
      "inputs": [
        {
          "indexed": true,
          "internalType": "address",
          "name": "owner",
          "type": "address"
        },
        {
          "indexed": true,
          "internalType": "address",
          "name": "operator",
          "type": "address"
        },
        {
          "indexed": false,
          "internalType": "bool",
          "name": "approved",
          "type": "bool"
        }
      ],
      "name": "ApprovalForAll",
      "type": "event"
    },
    {
      "anonymous": false,
      "inputs": [
        {
          "indexed": true,
          "internalType": "bytes32",
          "name": "role",
          "type": "bytes32"
        },
        {
          "indexed": true,
          "internalType": "bytes32",
          "name": "previousAdminRole",
          "type": "bytes32"
        },
        {
          "indexed": true,
          "internalType": "bytes32",
          "name": "newAdminRole",
          "type": "bytes32"
        }
      ],
      "name": "RoleAdminChanged",
      "type": "event"
    },
    {
      "anonymous": false,
      "inputs": [
        {
          "indexed": true,
          "internalType": "bytes32",
          "name": "role",
          "type": "bytes32"
        },
        {
          "indexed": true,
          "internalType": "address",
          "name": "account",
          "type": "address"
        },
        {
          "indexed": true,
          "internalType": "address",
          "name": "sender",
          "type": "address"
        }
      ],
      "name": "RoleGranted",
      "type": "event"
    },
    {
      "anonymous": false,
      "inputs": [
        {
          "indexed": true,
          "internalType": "bytes32",
          "name": "role",
          "type": "bytes32"
        },
        {
          "indexed": true,
          "internalType": "address",
          "name": "account",
          "type": "address"
        },
        {
          "indexed": true,
          "internalType": "address",
          "name": "sender",
          "type": "address"
        }
      ],
      "name": "RoleRevoked",
      "type": "event"
    },
    {
      "anonymous": false,
      "inputs": [
        {
          "indexed": true,
          "internalType": "address",
          "name": "from",
          "type": "address"
        },
        {
          "indexed": true,
          "internalType": "address",
          "name": "to",
          "type": "address"
        },
        {
          "indexed": true,
          "internalType": "uint256",
          "name": "tokenId",
          "type": "uint256"
        }
      ],
      "name": "Transfer",
      "type": "event"
    },
    {
      "inputs": [],
      "name": "DEFAULT_ADMIN_ROLE",
      "outputs": [
        {
          "internalType": "bytes32",
          "name": "",
          "type": "bytes32"
        }
      ],
      "stateMutability": "view",
      "type": "function"
    },
    {
      "inputs": [],
      "name": "MINTER_ROLE",
      "outputs": [
        {
          "internalType": "bytes32",
          "name": "",
          "type": "bytes32"
        }
      ],
      "stateMutability": "view",
      "type": "function"
    },
    {
      "inputs": [
        {
          "internalType": "address",
          "name": "to",
          "type": "address"
        },
        {
          "internalType": "uint256",
          "name": "tokenId",
          "type": "uint256"
        }
      ],
      "name": "approve",
      "outputs": [],
      "stateMutability": "nonpayable",
      "type": "function"
    },
    {
      "inputs": [
        {
          "internalType": "address",
          "name": "owner",
          "type": "address"
        }
      ],
      "name": "balanceOf",
      "outputs": [
        {
          "internalType": "uint256",
          "name": "",
          "type": "uint256"
        }
      ],
      "stateMutability": "view",
      "type": "function"
    },
    {
      "inputs": [
        {
          "internalType": "uint256",
          "name": "tokenId",
          "type": "uint256"
        }
      ],
      "name": "burn",
      "outputs": [],
      "stateMutability": "nonpayable",
      "type": "function"
    },
    {
      "inputs": [
        {
          "internalType": "uint256",
          "name": "tokenId",
          "type": "uint256"
        }
      ],
      "name": "getApproved",
      "outputs": [
        {
          "internalType": "address",
          "name": "",
          "type": "address"
        }
      ],
      "stateMutability": "view",
      "type": "function"
    },
    {
      "inputs": [
        {
          "internalType": "bytes32",
          "name": "role",
          "type": "bytes32"
        }
      ],
      "name": "getRoleAdmin",
      "outputs": [
        {
          "internalType": "bytes32",
          "name": "",
          "type": "bytes32"
        }
      ],
      "stateMutability": "view",
      "type": "function"
    },
    {
      "inputs": [
        {
          "internalType": "bytes32",
          "name": "role",
          "type": "bytes32"
        },
        {
          "internalType": "address",
          "name": "account",
          "type": "address"
        }
      ],
      "name": "grantRole",
      "outputs": [],
      "stateMutability": "nonpayable",
      "type": "function"
    },
    {
      "inputs": [
        {
          "internalType": "bytes32",
          "name": "role",
          "type": "bytes32"
        },
        {
          "internalType": "address",
          "name": "account",
          "type": "address"
        }
      ],
      "name": "hasRole",
      "outputs": [
        {
          "internalType": "bool",
          "name": "",
          "type": "bool"
        }
      ],
      "stateMutability": "view",
      "type": "function"
    },
    {
      "inputs": [
        {
          "internalType": "address",
          "name": "owner",
          "type": "address"
        },
        {
          "internalType": "address",
          "name": "operator",
          "type": "address"
        }
      ],
      "name": "isApprovedForAll",
      "outputs": [
        {
          "internalType": "bool",
          "name": "",
          "type": "bool"
        }
      ],
      "stateMutability": "view",
      "type": "function"
    },
    {
      "inputs": [],
      "name": "name",
      "outputs": [
        {
          "internalType": "string",
          "name": "",
          "type": "string"
        }
      ],
      "stateMutability": "view",
      "type": "function"
    },
    {
      "inputs": [
        {
          "internalType": "uint256",
          "name": "tokenId",
          "type": "uint256"
        }
      ],
      "name": "ownerOf",
      "outputs": [
        {
          "internalType": "address",
          "name": "",
          "type": "address"
        }
      ],
      "stateMutability": "view",
      "type": "function"
    },
    {
      "inputs": [
        {
          "internalType": "bytes32",
          "name": "role",
          "type": "bytes32"
        },
        {
          "internalType": "address",
          "name": "account",
          "type": "address"
        }
      ],
      "name": "renounceRole",
      "outputs": [],
      "stateMutability": "nonpayable",
      "type": "function"
    },
    {
      "inputs": [
        {
          "internalType": "bytes32",
          "name": "role",
          "type": "bytes32"
        },
        {
          "internalType": "address",
          "name": "account",
          "type": "address"
        }
      ],
      "name": "revokeRole",
      "outputs": [],
      "stateMutability": "nonpayable",
      "type": "function"
    },
    {
      "inputs": [
        {
          "internalType": "address",
          "name": "to",
          "type": "address"
        },
        {
          "internalType": "string",
          "name": "url",
          "type": "string"
        }
      ],
      "name": "safeMint",
      "outputs": [],
      "stateMutability": "nonpayable",
      "type": "function"
    },
    {
      "inputs": [
        {
          "internalType": "address",
          "name": "from",
          "type": "address"
        },
        {
          "internalType": "address",
          "name": "to",
          "type": "address"
        },
        {
          "internalType": "uint256",
          "name": "tokenId",
          "type": "uint256"
        }
      ],
      "name": "safeTransferFrom",
      "outputs": [],
      "stateMutability": "nonpayable",
      "type": "function"
    },
    {
      "inputs": [
        {
          "internalType": "address",
          "name": "from",
          "type": "address"
        },
        {
          "internalType": "address",
          "name": "to",
          "type": "address"
        },
        {
          "internalType": "uint256",
          "name": "tokenId",
          "type": "uint256"
        },
        {
          "internalType": "bytes",
          "name": "data",
          "type": "bytes"
        }
      ],
      "name": "safeTransferFrom",
      "outputs": [],
      "stateMutability": "nonpayable",
      "type": "function"
    },
    {
      "inputs": [
        {
          "internalType": "address",
          "name": "operator",
          "type": "address"
        },
        {
          "internalType": "bool",
          "name": "approved",
          "type": "bool"
        }
      ],
      "name": "setApprovalForAll",
      "outputs": [],
      "stateMutability": "nonpayable",
      "type": "function"
    },
    {
      "inputs": [
        {
          "internalType": "bytes4",
          "name": "interfaceId",
          "type": "bytes4"
        }
      ],
      "name": "supportsInterface",
      "outputs": [
        {
          "internalType": "bool",
          "name": "",
          "type": "bool"
        }
      ],
      "stateMutability": "view",
      "type": "function"
    },
    {
      "inputs": [],
      "name": "symbol",
      "outputs": [
        {
          "internalType": "string",
          "name": "",
          "type": "string"
        }
      ],
      "stateMutability": "view",
      "type": "function"
    },
    {
      "inputs": [
        {
          "internalType": "uint256",
          "name": "tokenId",
          "type": "uint256"
        }
      ],
      "name": "tokenURI",
      "outputs": [
        {
          "internalType": "string",
          "name": "",
          "type": "string"
        }
      ],
      "stateMutability": "view",
      "type": "function"
    },
    {
      "inputs": [
        {
          "internalType": "address",
          "name": "from",
          "type": "address"
        },
        {
          "internalType": "address",
          "name": "to",
          "type": "address"
        },
        {
          "internalType": "uint256",
          "name": "tokenId",
          "type": "uint256"
        }
      ],
      "name": "transferFrom",
      "outputs": [],
      "stateMutability": "nonpayable",
      "type": "function"
    }
  ],
  "bytecode": "0x60806040523480156200001157600080fd5b506040518060400160405280600e81526020017f5468756e646572446f6d654e46540000000000000000000000000000000000008152506040518060400160405280600381526020017f544454000000000000000000000000000000000000000000000000000000000081525081600090816200008f9190620004d0565b508060019081620000a19190620004d0565b505050620000b96000801b33620000f160201b60201c565b620000eb7f9f2df0fed2c77648de5860a4cc508cd0818c85b8b8a1ab4ceeef8d981c8956a633620000f160201b60201c565b620005b7565b620001038282620001e360201b60201c565b620001df5760016007600084815260200190815260200160002060000160008373ffffffffffffffffffffffffffffffffffffffff1673ffffffffffffffffffffffffffffffffffffffff16815260200190815260200160002060006101000a81548160ff021916908315150217905550620001846200024e60201b60201c565b73ffffffffffffffffffffffffffffffffffffffff168173ffffffffffffffffffffffffffffffffffffffff16837f2f8788117e7eff1d82e926ec794901d17c78024a50270940304540a733656f0d60405160405180910390a45b5050565b60006007600084815260200190815260200160002060000160008373ffffffffffffffffffffffffffffffffffffffff1673ffffffffffffffffffffffffffffffffffffffff16815260200190815260200160002060009054906101000a900460ff16905092915050565b600033905090565b600081519050919050565b7f4e487b7100000000000000000000000000000000000000000000000000000000600052604160045260246000fd5b7f4e487b7100000000000000000000000000000000000000000000000000000000600052602260045260246000fd5b60006002820490506001821680620002d857607f821691505b602082108103620002ee57620002ed62000290565b5b50919050565b60008190508160005260206000209050919050565b60006020601f8301049050919050565b600082821b905092915050565b600060088302620003587fffffffffffffffffffffffffffffffffffffffffffffffffffffffffffffffff8262000319565b62000364868362000319565b95508019841693508086168417925050509392505050565b6000819050919050565b6000819050919050565b6000620003b1620003ab620003a5846200037c565b62000386565b6200037c565b9050919050565b6000819050919050565b620003cd8362000390565b620003e5620003dc82620003b8565b84845462000326565b825550505050565b600090565b620003fc620003ed565b62000409818484620003c2565b505050565b5b81811015620004315762000425600082620003f2565b6001810190506200040f565b5050565b601f82111562000480576200044a81620002f4565b620004558462000309565b8101602085101562000465578190505b6200047d620004748562000309565b8301826200040e565b50505b505050565b600082821c905092915050565b6000620004a56000198460080262000485565b1980831691505092915050565b6000620004c0838362000492565b9150826002028217905092915050565b620004db8262000256565b67ffffffffffffffff811115620004f757620004f662000261565b5b620005038254620002bf565b6200051082828562000435565b600060209050601f83116001811462000548576000841562000533578287015190505b6200053f8582620004b2565b865550620005af565b601f1984166200055886620002f4565b60005b8281101562000582578489015182556001820191506020850194506020810190506200055b565b86831015620005a257848901516200059e601f89168262000492565b8355505b6001600288020188555050505b505050505050565b61383280620005c76000396000f3fe608060405234801561001057600080fd5b50600436106101425760003560e01c806370a08231116100b8578063b88d4fde1161007c578063b88d4fde14610385578063c87b56dd146103a1578063d204c45e146103d1578063d5391393146103ed578063d547741f1461040b578063e985e9c51461042757610142565b806370a08231146102cd57806391d14854146102fd57806395d89b411461032d578063a217fddf1461034b578063a22cb4651461036957610142565b8063248a9ca31161010a578063248a9ca3146101fd5780632f2ff15d1461022d57806336568abe1461024957806342842e0e1461026557806342966c68146102815780636352211e1461029d57610142565b806301ffc9a71461014757806306fdde0314610177578063081812fc14610195578063095ea7b3146101c557806323b872dd146101e1575b600080fd5b610161600480360381019061015c91906122e6565b610457565b60405161016e919061232e565b60405180910390f35b61017f610469565b60405161018c91906123d9565b60405180910390f35b6101af60048036038101906101aa9190612431565b6104fb565b6040516101bc919061249f565b60405180910390f35b6101df60048036038101906101da91906124e6565b610541565b005b6101fb60048036038101906101f69190612526565b610658565b005b610217600480360381019061021291906125af565b6106b8565b60405161022491906125eb565b60405180910390f35b61024760048036038101906102429190612606565b6106d8565b005b610263600480360381019061025e9190612606565b6106f9565b005b61027f600480360381019061027a9190612526565b61077c565b005b61029b60048036038101906102969190612431565b61079c565b005b6102b760048036038101906102b29190612431565b6107f8565b6040516102c4919061249f565b60405180910390f35b6102e760048036038101906102e29190612646565b6108a9565b6040516102f49190612682565b60405180910390f35b61031760048036038101906103129190612606565b610960565b604051610324919061232e565b60405180910390f35b6103356109cb565b60405161034291906123d9565b60405180910390f35b610353610a5d565b60405161036091906125eb565b60405180910390f35b610383600480360381019061037e91906126c9565b610a64565b005b61039f600480360381019061039a919061283e565b610a7a565b005b6103bb60048036038101906103b69190612431565b610adc565b6040516103c891906123d9565b60405180910390f35b6103eb60048036038101906103e69190612921565b610aee565b005b6103f5610b8f565b60405161040291906125eb565b60405180910390f35b61042560048036038101906104209190612606565b610bb3565b005b610441600480360381019061043c9190612981565b610bd4565b60405161044e919061232e565b60405180910390f35b600061046282610c68565b9050919050565b606060008054610478906129f0565b80601f01602080910402602001604051908101604052809291908181526020018280546104a4906129f0565b80156104f15780601f106104c6576101008083540402835291602001916104f1565b820191906000526020600020905b8154815290600101906020018083116104d457829003601f168201915b5050505050905090565b600061050682610ce2565b6004600083815260200190815260200160002060009054906101000a900473ffffffffffffffffffffffffffffffffffffffff169050919050565b600061054c826107f8565b90508073ffffffffffffffffffffffffffffffffffffffff168373ffffffffffffffffffffffffffffffffffffffff16036105bc576040517f08c379a00000000000000000000000000000000000000000000000000000000081526004016105b390612a93565b60405180910390fd5b8073ffffffffffffffffffffffffffffffffffffffff166105db610d2d565b73ffffffffffffffffffffffffffffffffffffffff16148061060a575061060981610604610d2d565b610bd4565b5b610649576040517f08c379a000000000000000000000000000000000000000000000000000000000815260040161064090612b25565b60405180910390fd5b6106538383610d35565b505050565b610669610663610d2d565b82610dee565b6106a8576040517f08c379a000000000000000000000000000000000000000000000000000000000815260040161069f90612bb7565b60405180910390fd5b6106b3838383610e83565b505050565b600060076000838152602001908152602001600020600101549050919050565b6106e1826106b8565b6106ea816110e9565b6106f483836110fd565b505050565b610701610d2d565b73ffffffffffffffffffffffffffffffffffffffff168173ffffffffffffffffffffffffffffffffffffffff161461076e576040517f08c379a000000000000000000000000000000000000000000000000000000000815260040161076590612c49565b60405180910390fd5b61077882826111de565b5050565b61079783838360405180602001604052806000815250610a7a565b505050565b6107ad6107a7610d2d565b82610dee565b6107ec576040517f08c379a00000000000000000000000000000000000000000000000000000000081526004016107e390612bb7565b60405180910390fd5b6107f5816112c0565b50565b6000806002600084815260200190815260200160002060009054906101000a900473ffffffffffffffffffffffffffffffffffffffff169050600073ffffffffffffffffffffffffffffffffffffffff168173ffffffffffffffffffffffffffffffffffffffff16036108a0576040517f08c379a000000000000000000000000000000000000000000000000000000000815260040161089790612cb5565b60405180910390fd5b80915050919050565b60008073ffffffffffffffffffffffffffffffffffffffff168273ffffffffffffffffffffffffffffffffffffffff1603610919576040517f08c379a000000000000000000000000000000000000000000000000000000000815260040161091090612d47565b60405180910390fd5b600360008373ffffffffffffffffffffffffffffffffffffffff1673ffffffffffffffffffffffffffffffffffffffff168152602001908152602001600020549050919050565b60006007600084815260200190815260200160002060000160008373ffffffffffffffffffffffffffffffffffffffff1673ffffffffffffffffffffffffffffffffffffffff16815260200190815260200160002060009054906101000a900460ff16905092915050565b6060600180546109da906129f0565b80601f0160208091040260200160405190810160405280929190818152602001828054610a06906129f0565b8015610a535780601f10610a2857610100808354040283529160200191610a53565b820191906000526020600020905b815481529060010190602001808311610a3657829003601f168201915b5050505050905090565b6000801b81565b610a76610a6f610d2d565b83836112cc565b5050565b610a8b610a85610d2d565b83610dee565b610aca576040517f08c379a0000000000000000000000000000000000000000000000000000000008152600401610ac190612bb7565b60405180910390fd5b610ad684848484611438565b50505050565b6060610ae782611494565b9050919050565b7f9f2df0fed2c77648de5860a4cc508cd0818c85b8b8a1ab4ceeef8d981c8956a6610b18816110e9565b6000610b2460086115a6565b9050610b3085826115b4565b610b7e8185858080601f016020809104026020016040519081016040528093929190818152602001838380828437600081840152601f19601f820116905080830192505050505050506115d2565b610b88600861163f565b5050505050565b7f9f2df0fed2c77648de5860a4cc508cd0818c85b8b8a1ab4ceeef8d981c8956a681565b610bbc826106b8565b610bc5816110e9565b610bcf83836111de565b505050565b6000600560008473ffffffffffffffffffffffffffffffffffffffff1673ffffffffffffffffffffffffffffffffffffffff16815260200190815260200160002060008373ffffffffffffffffffffffffffffffffffffffff1673ffffffffffffffffffffffffffffffffffffffff16815260200190815260200160002060009054906101000a900460ff16905092915050565b60007f7965db0b000000000000000000000000000000000000000000000000000000007bffffffffffffffffffffffffffffffffffffffffffffffffffffffff1916827bffffffffffffffffffffffffffffffffffffffffffffffffffffffff19161480610cdb5750610cda82611655565b5b9050919050565b610ceb81611737565b610d2a576040517f08c379a0000000000000000000000000000000000000000000000000000000008152600401610d2190612cb5565b60405180910390fd5b50565b600033905090565b816004600083815260200190815260200160002060006101000a81548173ffffffffffffffffffffffffffffffffffffffff021916908373ffffffffffffffffffffffffffffffffffffffff160217905550808273ffffffffffffffffffffffffffffffffffffffff16610da8836107f8565b73ffffffffffffffffffffffffffffffffffffffff167f8c5be1e5ebec7d5bd14f71427d1e84f3dd0314c0f7b2291e5b200ac8c7c3b92560405160405180910390a45050565b600080610dfa836107f8565b90508073ffffffffffffffffffffffffffffffffffffffff168473ffffffffffffffffffffffffffffffffffffffff161480610e3c5750610e3b8185610bd4565b5b80610e7a57508373ffffffffffffffffffffffffffffffffffffffff16610e62846104fb565b73ffffffffffffffffffffffffffffffffffffffff16145b91505092915050565b8273ffffffffffffffffffffffffffffffffffffffff16610ea3826107f8565b73ffffffffffffffffffffffffffffffffffffffff1614610ef9576040517f08c379a0000000000000000000000000000000000000000000000000000000008152600401610ef090612dd9565b60405180910390fd5b600073ffffffffffffffffffffffffffffffffffffffff168273ffffffffffffffffffffffffffffffffffffffff1603610f68576040517f08c379a0000000000000000000000000000000000000000000000000000000008152600401610f5f90612e6b565b60405180910390fd5b610f738383836117a3565b610f7e600082610d35565b6001600360008573ffffffffffffffffffffffffffffffffffffffff1673ffffffffffffffffffffffffffffffffffffffff1681526020019081526020016000206000828254610fce9190612eba565b925050819055506001600360008473ffffffffffffffffffffffffffffffffffffffff1673ffffffffffffffffffffffffffffffffffffffff16815260200190815260200160002060008282546110259190612eee565b92505081905550816002600083815260200190815260200160002060006101000a81548173ffffffffffffffffffffffffffffffffffffffff021916908373ffffffffffffffffffffffffffffffffffffffff160217905550808273ffffffffffffffffffffffffffffffffffffffff168473ffffffffffffffffffffffffffffffffffffffff167fddf252ad1be2c89b69c2b068fc378daa952ba7f163c4a11628f55a4df523b3ef60405160405180910390a46110e48383836117a8565b505050565b6110fa816110f5610d2d565b6117ad565b50565b6111078282610960565b6111da5760016007600084815260200190815260200160002060000160008373ffffffffffffffffffffffffffffffffffffffff1673ffffffffffffffffffffffffffffffffffffffff16815260200190815260200160002060006101000a81548160ff02191690831515021790555061117f610d2d565b73ffffffffffffffffffffffffffffffffffffffff168173ffffffffffffffffffffffffffffffffffffffff16837f2f8788117e7eff1d82e926ec794901d17c78024a50270940304540a733656f0d60405160405180910390a45b5050565b6111e88282610960565b156112bc5760006007600084815260200190815260200160002060000160008373ffffffffffffffffffffffffffffffffffffffff1673ffffffffffffffffffffffffffffffffffffffff16815260200190815260200160002060006101000a81548160ff021916908315150217905550611261610d2d565b73ffffffffffffffffffffffffffffffffffffffff168173ffffffffffffffffffffffffffffffffffffffff16837ff6391f5c32d9c69d2a47ea670b442974b53935d1edc7fd64eb21e047a839171b60405160405180910390a45b5050565b6112c98161184a565b50565b8173ffffffffffffffffffffffffffffffffffffffff168373ffffffffffffffffffffffffffffffffffffffff160361133a576040517f08c379a000000000000000000000000000000000000000000000000000000000815260040161133190612f6e565b60405180910390fd5b80600560008573ffffffffffffffffffffffffffffffffffffffff1673ffffffffffffffffffffffffffffffffffffffff16815260200190815260200160002060008473ffffffffffffffffffffffffffffffffffffffff1673ffffffffffffffffffffffffffffffffffffffff16815260200190815260200160002060006101000a81548160ff0219169083151502179055508173ffffffffffffffffffffffffffffffffffffffff168373ffffffffffffffffffffffffffffffffffffffff167f17307eab39ab6107e8899845ad3d59bd9653f200f220920489ca2b5937696c318360405161142b919061232e565b60405180910390a3505050565b611443848484610e83565b61144f8484848461189d565b61148e576040517f08c379a000000000000000000000000000000000000000000000000000000000815260040161148590613000565b60405180910390fd5b50505050565b606061149f82610ce2565b60006006600084815260200190815260200160002080546114bf906129f0565b80601f01602080910402602001604051908101604052809291908181526020018280546114eb906129f0565b80156115385780601f1061150d57610100808354040283529160200191611538565b820191906000526020600020905b81548152906001019060200180831161151b57829003601f168201915b505050505090506000611549611a24565b9050600081510361155e5781925050506115a1565b60008251111561159357808260405160200161157b92919061305c565b604051602081830303815290604052925050506115a1565b61159c84611a3b565b925050505b919050565b600081600001549050919050565b6115ce828260405180602001604052806000815250611aa3565b5050565b6115db82611737565b61161a576040517f08c379a0000000000000000000000000000000000000000000000000000000008152600401611611906130f2565b60405180910390fd5b8060066000848152602001908152602001600020908161163a91906132be565b505050565b6001816000016000828254019250508190555050565b60007f80ac58cd000000000000000000000000000000000000000000000000000000007bffffffffffffffffffffffffffffffffffffffffffffffffffffffff1916827bffffffffffffffffffffffffffffffffffffffffffffffffffffffff1916148061172057507f5b5e139f000000000000000000000000000000000000000000000000000000007bffffffffffffffffffffffffffffffffffffffffffffffffffffffff1916827bffffffffffffffffffffffffffffffffffffffffffffffffffffffff1916145b80611730575061172f82611afe565b5b9050919050565b60008073ffffffffffffffffffffffffffffffffffffffff166002600084815260200190815260200160002060009054906101000a900473ffffffffffffffffffffffffffffffffffffffff1673ffffffffffffffffffffffffffffffffffffffff1614159050919050565b505050565b505050565b6117b78282610960565b611846576117dc8173ffffffffffffffffffffffffffffffffffffffff166014611b68565b6117ea8360001c6020611b68565b6040516020016117fb929190613428565b6040516020818303038152906040526040517f08c379a000000000000000000000000000000000000000000000000000000000815260040161183d91906123d9565b60405180910390fd5b5050565b61185381611da4565b6000600660008381526020019081526020016000208054611873906129f0565b90501461189a57600660008281526020019081526020016000206000611899919061221d565b5b50565b60006118be8473ffffffffffffffffffffffffffffffffffffffff16611ec1565b15611a17578373ffffffffffffffffffffffffffffffffffffffff1663150b7a026118e7610d2d565b8786866040518563ffffffff1660e01b815260040161190994939291906134b7565b6020604051808303816000875af192505050801561194557506040513d601f19601f820116820180604052508101906119429190613518565b60015b6119c7573d8060008114611975576040519150601f19603f3d011682016040523d82523d6000602084013e61197a565b606091505b5060008151036119bf576040517f08c379a00000000000000000000000000000000000000000000000000000000081526004016119b690613000565b60405180910390fd5b805181602001fd5b63150b7a0260e01b7bffffffffffffffffffffffffffffffffffffffffffffffffffffffff1916817bffffffffffffffffffffffffffffffffffffffffffffffffffffffff191614915050611a1c565b600190505b949350505050565b606060405180602001604052806000815250905090565b6060611a4682610ce2565b6000611a50611a24565b90506000815111611a705760405180602001604052806000815250611a9b565b80611a7a84611ee4565b604051602001611a8b92919061305c565b6040516020818303038152906040525b915050919050565b611aad8383612044565b611aba600084848461189d565b611af9576040517f08c379a0000000000000000000000000000000000000000000000000000000008152600401611af090613000565b60405180910390fd5b505050565b60007f01ffc9a7000000000000000000000000000000000000000000000000000000007bffffffffffffffffffffffffffffffffffffffffffffffffffffffff1916827bffffffffffffffffffffffffffffffffffffffffffffffffffffffff1916149050919050565b606060006002836002611b7b9190613545565b611b859190612eee565b67ffffffffffffffff811115611b9e57611b9d612713565b5b6040519080825280601f01601f191660200182016040528015611bd05781602001600182028036833780820191505090505b5090507f300000000000000000000000000000000000000000000000000000000000000081600081518110611c0857611c07613587565b5b60200101907effffffffffffffffffffffffffffffffffffffffffffffffffffffffffffff1916908160001a9053507f780000000000000000000000000000000000000000000000000000000000000081600181518110611c6c57611c6b613587565b5b60200101907effffffffffffffffffffffffffffffffffffffffffffffffffffffffffffff1916908160001a90535060006001846002611cac9190613545565b611cb69190612eee565b90505b6001811115611d56577f3031323334353637383961626364656600000000000000000000000000000000600f861660108110611cf857611cf7613587565b5b1a60f81b828281518110611d0f57611d0e613587565b5b60200101907effffffffffffffffffffffffffffffffffffffffffffffffffffffffffffff1916908160001a905350600485901c945080611d4f906135b6565b9050611cb9565b5060008414611d9a576040517f08c379a0000000000000000000000000000000000000000000000000000000008152600401611d919061362b565b60405180910390fd5b8091505092915050565b6000611daf826107f8565b9050611dbd816000846117a3565b611dc8600083610d35565b6001600360008373ffffffffffffffffffffffffffffffffffffffff1673ffffffffffffffffffffffffffffffffffffffff1681526020019081526020016000206000828254611e189190612eba565b925050819055506002600083815260200190815260200160002060006101000a81549073ffffffffffffffffffffffffffffffffffffffff021916905581600073ffffffffffffffffffffffffffffffffffffffff168273ffffffffffffffffffffffffffffffffffffffff167fddf252ad1be2c89b69c2b068fc378daa952ba7f163c4a11628f55a4df523b3ef60405160405180910390a4611ebd816000846117a8565b5050565b6000808273ffffffffffffffffffffffffffffffffffffffff163b119050919050565b606060008203611f2b576040518060400160405280600181526020017f3000000000000000000000000000000000000000000000000000000000000000815250905061203f565b600082905060005b60008214611f5d578080611f469061364b565b915050600a82611f5691906136c2565b9150611f33565b60008167ffffffffffffffff811115611f7957611f78612713565b5b6040519080825280601f01601f191660200182016040528015611fab5781602001600182028036833780820191505090505b5090505b6000851461203857600182611fc49190612eba565b9150600a85611fd391906136f3565b6030611fdf9190612eee565b60f81b818381518110611ff557611ff4613587565b5b60200101907effffffffffffffffffffffffffffffffffffffffffffffffffffffffffffff1916908160001a905350600a8561203191906136c2565b9450611faf565b8093505050505b919050565b600073ffffffffffffffffffffffffffffffffffffffff168273ffffffffffffffffffffffffffffffffffffffff16036120b3576040517f08c379a00000000000000000000000000000000000000000000000000000000081526004016120aa90613770565b60405180910390fd5b6120bc81611737565b156120fc576040517f08c379a00000000000000000000000000000000000000000000000000000000081526004016120f3906137dc565b60405180910390fd5b612108600083836117a3565b6001600360008473ffffffffffffffffffffffffffffffffffffffff1673ffffffffffffffffffffffffffffffffffffffff16815260200190815260200160002060008282546121589190612eee565b92505081905550816002600083815260200190815260200160002060006101000a81548173ffffffffffffffffffffffffffffffffffffffff021916908373ffffffffffffffffffffffffffffffffffffffff160217905550808273ffffffffffffffffffffffffffffffffffffffff16600073ffffffffffffffffffffffffffffffffffffffff167fddf252ad1be2c89b69c2b068fc378daa952ba7f163c4a11628f55a4df523b3ef60405160405180910390a4612219600083836117a8565b5050565b508054612229906129f0565b6000825580601f1061223b575061225a565b601f016020900490600052602060002090810190612259919061225d565b5b50565b5b8082111561227657600081600090555060010161225e565b5090565b6000604051905090565b600080fd5b600080fd5b60007fffffffff0000000000000000000000000000000000000000000000000000000082169050919050565b6122c38161228e565b81146122ce57600080fd5b50565b6000813590506122e0816122ba565b92915050565b6000602082840312156122fc576122fb612284565b5b600061230a848285016122d1565b91505092915050565b60008115159050919050565b61232881612313565b82525050565b6000602082019050612343600083018461231f565b92915050565b600081519050919050565b600082825260208201905092915050565b60005b83811015612383578082015181840152602081019050612368565b60008484015250505050565b6000601f19601f8301169050919050565b60006123ab82612349565b6123b58185612354565b93506123c5818560208601612365565b6123ce8161238f565b840191505092915050565b600060208201905081810360008301526123f381846123a0565b905092915050565b6000819050919050565b61240e816123fb565b811461241957600080fd5b50565b60008135905061242b81612405565b92915050565b60006020828403121561244757612446612284565b5b60006124558482850161241c565b91505092915050565b600073ffffffffffffffffffffffffffffffffffffffff82169050919050565b60006124898261245e565b9050919050565b6124998161247e565b82525050565b60006020820190506124b46000830184612490565b92915050565b6124c38161247e565b81146124ce57600080fd5b50565b6000813590506124e0816124ba565b92915050565b600080604083850312156124fd576124fc612284565b5b600061250b858286016124d1565b925050602061251c8582860161241c565b9150509250929050565b60008060006060848603121561253f5761253e612284565b5b600061254d868287016124d1565b935050602061255e868287016124d1565b925050604061256f8682870161241c565b9150509250925092565b6000819050919050565b61258c81612579565b811461259757600080fd5b50565b6000813590506125a981612583565b92915050565b6000602082840312156125c5576125c4612284565b5b60006125d38482850161259a565b91505092915050565b6125e581612579565b82525050565b600060208201905061260060008301846125dc565b92915050565b6000806040838503121561261d5761261c612284565b5b600061262b8582860161259a565b925050602061263c858286016124d1565b9150509250929050565b60006020828403121561265c5761265b612284565b5b600061266a848285016124d1565b91505092915050565b61267c816123fb565b82525050565b60006020820190506126976000830184612673565b92915050565b6126a681612313565b81146126b157600080fd5b50565b6000813590506126c38161269d565b92915050565b600080604083850312156126e0576126df612284565b5b60006126ee858286016124d1565b92505060206126ff858286016126b4565b9150509250929050565b600080fd5b600080fd5b7f4e487b7100000000000000000000000000000000000000000000000000000000600052604160045260246000fd5b61274b8261238f565b810181811067ffffffffffffffff8211171561276a57612769612713565b5b80604052505050565b600061277d61227a565b90506127898282612742565b919050565b600067ffffffffffffffff8211156127a9576127a8612713565b5b6127b28261238f565b9050602081019050919050565b82818337600083830152505050565b60006127e16127dc8461278e565b612773565b9050828152602081018484840111156127fd576127fc61270e565b5b6128088482856127bf565b509392505050565b600082601f83011261282557612824612709565b5b81356128358482602086016127ce565b91505092915050565b6000806000806080858703121561285857612857612284565b5b6000612866878288016124d1565b9450506020612877878288016124d1565b93505060406128888782880161241c565b925050606085013567ffffffffffffffff8111156128a9576128a8612289565b5b6128b587828801612810565b91505092959194509250565b600080fd5b600080fd5b60008083601f8401126128e1576128e0612709565b5b8235905067ffffffffffffffff8111156128fe576128fd6128c1565b5b60208301915083600182028301111561291a576129196128c6565b5b9250929050565b60008060006040848603121561293a57612939612284565b5b6000612948868287016124d1565b935050602084013567ffffffffffffffff81111561296957612968612289565b5b612975868287016128cb565b92509250509250925092565b6000806040838503121561299857612997612284565b5b60006129a6858286016124d1565b92505060206129b7858286016124d1565b9150509250929050565b7f4e487b7100000000000000000000000000000000000000000000000000000000600052602260045260246000fd5b60006002820490506001821680612a0857607f821691505b602082108103612a1b57612a1a6129c1565b5b50919050565b7f4552433732313a20617070726f76616c20746f2063757272656e74206f776e6560008201527f7200000000000000000000000000000000000000000000000000000000000000602082015250565b6000612a7d602183612354565b9150612a8882612a21565b604082019050919050565b60006020820190508181036000830152612aac81612a70565b9050919050565b7f4552433732313a20617070726f76652063616c6c6572206973206e6f7420746f60008201527f6b656e206f776e6572206e6f7220617070726f76656420666f7220616c6c0000602082015250565b6000612b0f603e83612354565b9150612b1a82612ab3565b604082019050919050565b60006020820190508181036000830152612b3e81612b02565b9050919050565b7f4552433732313a2063616c6c6572206973206e6f7420746f6b656e206f776e6560008201527f72206e6f7220617070726f766564000000000000000000000000000000000000602082015250565b6000612ba1602e83612354565b9150612bac82612b45565b604082019050919050565b60006020820190508181036000830152612bd081612b94565b9050919050565b7f416363657373436f6e74726f6c3a2063616e206f6e6c792072656e6f756e636560008201527f20726f6c657320666f722073656c660000000000000000000000000000000000602082015250565b6000612c33602f83612354565b9150612c3e82612bd7565b604082019050919050565b60006020820190508181036000830152612c6281612c26565b9050919050565b7f4552433732313a20696e76616c696420746f6b656e2049440000000000000000600082015250565b6000612c9f601883612354565b9150612caa82612c69565b602082019050919050565b60006020820190508181036000830152612cce81612c92565b9050919050565b7f4552433732313a2061646472657373207a65726f206973206e6f74206120766160008201527f6c6964206f776e65720000000000000000000000000000000000000000000000602082015250565b6000612d31602983612354565b9150612d3c82612cd5565b604082019050919050565b60006020820190508181036000830152612d6081612d24565b9050919050565b7f4552433732313a207472616e736665722066726f6d20696e636f72726563742060008201527f6f776e6572000000000000000000000000000000000000000000000000000000602082015250565b6000612dc3602583612354565b9150612dce82612d67565b604082019050919050565b60006020820190508181036000830152612df281612db6565b9050919050565b7f4552433732313a207472616e7366657220746f20746865207a65726f2061646460008201527f7265737300000000000000000000000000000000000000000000000000000000602082015250565b6000612e55602483612354565b9150612e6082612df9565b604082019050919050565b60006020820190508181036000830152612e8481612e48565b9050919050565b7f4e487b7100000000000000000000000000000000000000000000000000000000600052601160045260246000fd5b6000612ec5826123fb565b9150612ed0836123fb565b9250828203905081811115612ee857612ee7612e8b565b5b92915050565b6000612ef9826123fb565b9150612f04836123fb565b9250828201905080821115612f1c57612f1b612e8b565b5b92915050565b7f4552433732313a20617070726f766520746f2063616c6c657200000000000000600082015250565b6000612f58601983612354565b9150612f6382612f22565b602082019050919050565b60006020820190508181036000830152612f8781612f4b565b9050919050565b7f4552433732313a207472616e7366657220746f206e6f6e20455243373231526560008201527f63656976657220696d706c656d656e7465720000000000000000000000000000602082015250565b6000612fea603283612354565b9150612ff582612f8e565b604082019050919050565b6000602082019050818103600083015261301981612fdd565b9050919050565b600081905092915050565b600061303682612349565b6130408185613020565b9350613050818560208601612365565b80840191505092915050565b6000613068828561302b565b9150613074828461302b565b91508190509392505050565b7f45524337323155524953746f726167653a2055524920736574206f66206e6f6e60008201527f6578697374656e7420746f6b656e000000000000000000000000000000000000602082015250565b60006130dc602e83612354565b91506130e782613080565b604082019050919050565b6000602082019050818103600083015261310b816130cf565b9050919050565b60008190508160005260206000209050919050565b60006020601f8301049050919050565b600082821b905092915050565b6000600883026131747fffffffffffffffffffffffffffffffffffffffffffffffffffffffffffffffff82613137565b61317e8683613137565b95508019841693508086168417925050509392505050565b6000819050919050565b60006131bb6131b66131b1846123fb565b613196565b6123fb565b9050919050565b6000819050919050565b6131d5836131a0565b6131e96131e1826131c2565b848454613144565b825550505050565b600090565b6131fe6131f1565b6132098184846131cc565b505050565b5b8181101561322d576132226000826131f6565b60018101905061320f565b5050565b601f8211156132725761324381613112565b61324c84613127565b8101602085101561325b578190505b61326f61326785613127565b83018261320e565b50505b505050565b600082821c905092915050565b600061329560001984600802613277565b1980831691505092915050565b60006132ae8383613284565b9150826002028217905092915050565b6132c782612349565b67ffffffffffffffff8111156132e0576132df612713565b5b6132ea82546129f0565b6132f5828285613231565b600060209050601f8311600181146133285760008415613316578287015190505b61332085826132a2565b865550613388565b601f19841661333686613112565b60005b8281101561335e57848901518255600182019150602085019450602081019050613339565b8683101561337b5784890151613377601f891682613284565b8355505b6001600288020188555050505b505050505050565b7f416363657373436f6e74726f6c3a206163636f756e7420000000000000000000600082015250565b60006133c6601783613020565b91506133d182613390565b601782019050919050565b7f206973206d697373696e6720726f6c6520000000000000000000000000000000600082015250565b6000613412601183613020565b915061341d826133dc565b601182019050919050565b6000613433826133b9565b915061343f828561302b565b915061344a82613405565b9150613456828461302b565b91508190509392505050565b600081519050919050565b600082825260208201905092915050565b600061348982613462565b613493818561346d565b93506134a3818560208601612365565b6134ac8161238f565b840191505092915050565b60006080820190506134cc6000830187612490565b6134d96020830186612490565b6134e66040830185612673565b81810360608301526134f8818461347e565b905095945050505050565b600081519050613512816122ba565b92915050565b60006020828403121561352e5761352d612284565b5b600061353c84828501613503565b91505092915050565b6000613550826123fb565b915061355b836123fb565b9250828202613569816123fb565b915082820484148315176135805761357f612e8b565b5b5092915050565b7f4e487b7100000000000000000000000000000000000000000000000000000000600052603260045260246000fd5b60006135c1826123fb565b9150600082036135d4576135d3612e8b565b5b600182039050919050565b7f537472696e67733a20686578206c656e67746820696e73756666696369656e74600082015250565b6000613615602083612354565b9150613620826135df565b602082019050919050565b6000602082019050818103600083015261364481613608565b9050919050565b6000613656826123fb565b91507fffffffffffffffffffffffffffffffffffffffffffffffffffffffffffffffff820361368857613687612e8b565b5b600182019050919050565b7f4e487b7100000000000000000000000000000000000000000000000000000000600052601260045260246000fd5b60006136cd826123fb565b91506136d8836123fb565b9250826136e8576136e7613693565b5b828204905092915050565b60006136fe826123fb565b9150613709836123fb565b92508261371957613718613693565b5b828206905092915050565b7f4552433732313a206d696e7420746f20746865207a65726f2061646472657373600082015250565b600061375a602083612354565b915061376582613724565b602082019050919050565b600060208201905081810360008301526137898161374d565b9050919050565b7f4552433732313a20746f6b656e20616c7265616479206d696e74656400000000600082015250565b60006137c6601c83612354565b91506137d182613790565b602082019050919050565b600060208201905081810360008301526137f5816137b9565b905091905056fea2646970667358221220951ebefa0d36a2953a19737bdcfff347118b2f7e94ffc815bed7acd82dfc6b4864736f6c63430008110033",
  "linkReferences": {},
  "deployedLinkReferences": {}
}